:020000040800F2
:1000000060190020290700082D0500082F050008A9
:1000100033050008370500083B0500080000000014
:100020000000000000000000000000003F05000884
:1000300041050008000000004305000845050008D0
:100040004307000843070008430700084307000868
:100050004307000843070008430700084307000858
:100060004307000843070008430700084307000848
:100070004307000843070008430700084307000838
:100080004307000843070008430700084307000828
:100090004307000843070008430700084307000818
:1000A0004307000843070008430700084307000808
:1000B000CD33000843070008430700084307000842
:1000C00043070008430700084307000843070008E8
:1000D00043070008C7370008512700080D2D000806
:1000E00043070008430700084307000843070008C8
:1000F00043070008430700084307000843070008B8
:1001000043070008430700084307000843070008A7
:10011000430700084307000843070008C52E0008EE
:100120004307000843070008430700084307000887
:1001300000F002F800F094F80AA090E8000C824465
:100140008344AAF10107DA4501D100F089F8AFF242
:10015000090EBAE80F0013F0010F18BFFB1A43F0A5
:100160000103184768A1000088A10000103A24BFCD
:1001700078C878C1FAD8520724BF30C830C144BF0C
:1001800004680C607047000000230024002500264E
:10019000103A28BF78C1FBD8520728BF30C148BFEA
:1001A0000B6070476E2907F09B81702906F013865B
:1001B000662909F05487652909F05187672909F0F4
:1001C0004E876129AFF3008003681B0A28BF41F006
:1001D0008001692906F08685642906F083857529E2
:1001E00006F080856F2907F09D84782906F0DF8569
:1001F000E92907F03984E42907F03684F52907F066
:100200003384EF2907F09A84F82906F0DE85036825
:10021000DB0928BF41F08001632907F0A883732917
:1002200007F0AD83E32907F08785F32907F08C8574
:10023000002070471FB59DE8030007F0A5F807F000
:10024000C9FC04000020002109F08AF8401C60600D
:100250000020002109F09AF8E0601FBD10B510BD24
:1002600007F00EFE1146FFF7E5FF00F08DF807F0EE
:100270002CFE03B4FFF7F2FF03BC03F049FA0000C1
:1002800010B569A002F0E5FD4FF4FA7003F013FA1F
:1002900067A002F0DEFD4FF4FA7003F00CFA68A0DC
:1002A00002F0D7FD4FF4FA7003F005FA67A002F0F0
:1002B000D0FD4FF4FA7003F0FEF967A002F0C9FD1B
:1002C0004FF47A7003F0F7F94FF47A7003F0F3F912
:1002D0004FF47A7003F0EFF94FF47A7003F0EBF912
:1002E0004FF47A7003F0E7F94FF47A7003F0E3F912
:1002F0004FF47A7003F0DFF94FF47A7003F0DBF912
:1003000060A002F0A6FD4FF47A7003F0D4F94FF428
:100310007A7003F0D0F94FF47A7003F0CCF94FF40F
:100320007A7003F0C8F963A002F093FD4FF47A707D
:1003300003F0C1F94FF47A7003F0BDF94FF47A700D
:1003400003F0B9F94FF47A7003F0B5F914225DA106
:1003500064A002F0E3FA4FF47A7003F0ACF94FF4C2
:100360007A7003F0A8F94FF47A7003F0A4F94FF40F
:100370007A7003F0A0F94FF47A7003F09CF94FF40F
:100380007A7003F098F910BD322058490870312076
:10039000487088700020C87003F050F94FF4A060D6
:1003A00000F0E2F902F07CF802F064F84FF4E1307A
:1003B00003F0BDF94FF4E13002F0EFF94FF4E13012
:1003C00002F0E8FCFFF75CFF2021494800F049FB00
:1003D0002021484800F045FB41F61F4140F2E7303C
:1003E00003F0CFF802F0B4FD02E043A006F008FCF1
:1003F00002F04DFE0028F8D144A006F001FC11E007
:100400001E2002F07DFB30B902F045FB444945A0B7
:1004100006F0F6FB06E0FFF733FF142229A131A016
:1004200002F07CFAECE7000041540D0A00000000E5
:1004300041542B43574D4F44453D310D0A000000B8
:1004400041542B5253540D0A0000000041542B43D9
:10045000494653520D0A000041542B43574A41501C
:100460003D22B5E7D7D3B4B4D0C2CAB5D1E9CAD218
:10047000222C2231323334353637383930220D0AC6
:100480000000000041542B43495053544152543D05
:1004900022544350222C226A6A66616564702E6879
:1004A000656465766963652E636F6D222C38373617
:1004B0000D0A000041542B4349504D4F44453D31F6
:1004C0000D0A0000593D6E6A4546544230496A564D
:1004D0006B7371576674454D4A6667657455733D15
:1004E0000000000034303731343936001812002053
:1004F00000180140000C014032344C303120495387
:10050000204552524F520D0A0000000032344C3048
:100510003120495320535543434553530D0A00009E
:100520001805002025730D0A00000000704700BF69
:10053000FEE700BFFEE700BFFEE700BFFEE7704733
:1005400070477047704700000CB500200190009084
:100550006C48006840F480306A49086000BF694810
:10056000006800F4003000900198401C0190009851
:1005700018B90198B0F5A06FF1D16248006800F495
:10058000003010B10120009001E0002000900098A0
:10059000012843D15C48006840F010005A490860C7
:1005A0000846006820F0030008600846006840F034
:1005B0000200086053484068524948600846406855
:1005C00048600846406840F48060486008464068DB
:1005D00020F47C1048600846406840F4E810486009
:1005E0000846006840F08070086000BF4548006819
:1005F00000F000700028F9D04248406820F0030065
:10060000404948600846406840F00200486000BF2A
:100610003C48406800F00C000828F9D10CBD10B52A
:10062000FFF792FF10BD10B53648006840F001009A
:1006300034490860084640683449084031494860F8
:1006400008460068324908402E490860084600689C
:1006500020F4802008600846406820F4FE004860CE
:100660004FF41F008860FFF7DAFF4FF00060294960
:10067000086010BD10B5002100200022214B5B68EE
:1006800003F00C0121B1042906D0082928D107E084
:10069000214B224C236027E01F4B204C236023E09A
:1006A000184B5B6803F47010164B5B6803F48032E0
:1006B000022303EB904022B9194B4343174C2360AC
:1006C0000DE0104B5B6803F4003323B1144B43433C
:1006D000124C236003E0104B4343104C236003E0B3
:1006E0000D4B0E4C236000BF00BF064B5B68C3F38D
:1006F00003130C4CE15C094B1B68CB40074C236097
:1007000010BD000000100240002002400000FFF871
:10071000FFFFF6FE08ED00E000127A000000002066
:1007200000093D00040000200948804709480047AF
:10073000FEE7FEE7FEE7FEE7FEE7FEE7FEE7FEE791
:10074000FEE7FEE704480549054A064B70470000EE
:1007500027060008310100086013002060190020FE
:10076000601500206015002031490143314A1160B5
:10077000704770B5002100230F22C47804B32D4CBC
:10078000246804F4E064C4F5E064210AC1F10403C0
:10079000CA40447804FA03F18478144021430901E3
:1007A000254C0678A155047804F01F050124AC40BF
:1007B00005786D11AD0005F1E025C5F8004109E0AF
:1007C000047804F01F050124AC401C4D0678761116
:1007D00045F8264070BD1A4A0A400243154B1B1FBC
:1007E0001A60704739B1134A121D12680243114B47
:1007F0001B1D1A6006E00F4A121D126882430D4B42
:100800001B1D1A607047042808D14FF0E0210969C8
:1008100041F004014FF0E022116107E04FF0E021C8
:10082000096921F004014FF0E022116170470000D6
:100830000000FA050CED00E000E400E080E100E0DB
:1008400080FFFF1F10B50446CC48844208D1012127
:10085000042000F02DFB0021042000F029FB46E0DD
:10086000C748844208D10121082000F021FB002163
:10087000082000F01DFB3AE0C248844208D1012163
:10088000102000F015FB0021102000F011FB2EE0DD
:10089000BD48844208D10121202000F009FB00213D
:1008A000202000F005FB22E0B848844208D1012155
:1008B000402000F0FDFA0021402000F0F9FA16E097
:1008C000B348844208D10121802000F0F1FA0021D0
:1008D000802000F0EDFA0AE0AE48844207D1012101
:1008E000801500F0E5FA0021A01500F0E1FA10BD36
:1008F00010B50121084600F0DBFA0021012000F0CC
:10090000D7FA10BD2DE9F04102460025002600204F
:1009100000230024002791F803C00CF00F0591F884
:1009200003C00CF0100CBCF1000F03D091F802C012
:100930004CEA050591F800C0BCF1000F31D01468F5
:1009400000202BE04FF0010C0CFA00F3B1F800C0CE
:100950000CEA03069E4220D183004FF00F0C0CFAE4
:1009600003F7BC4305FA03FC4CEA040491F803C006
:10097000BCF1280F06D14FF0010C0CFA00FCC2F8B4
:1009800014C00AE091F803C0BCF1480F05D14FF044
:10099000010C0CFA00FCC2F810C0401C0828D1D38E
:1009A0001460B1F800C0BCF1FF0F34DD54680020C2
:1009B0002EE000F1080C4FF0010808FA0CF3B1F832
:1009C00000C00CEA03069E4221D183004FF00F0CB9
:1009D0000CFA03F7BC4305FA03FC4CEA040491F853
:1009E00003C0BCF1280F05D100F1080C08FA0CF87F
:1009F000C2F8148091F803C0BCF1480F07D100F190
:100A0000080C4FF0010808FA0CF8C2F81080401CDE
:100A10000828CED35460BDE8F0814FF6FF71018005
:100A2000022181700421C170704702460020936842
:100A30000B400BB1012000E00020704701468868A0
:100A400080B2704702460020D3680B400BB10120F2
:100A500000E0002070470146C86880B2704701611D
:100A60007047416170470AB1016100E04161704720
:100A7000C16070474FF480320A43826181618261B4
:100A800082698269704702460020434B18684FF61E
:100A90008073184040EA021008433F4B18607047CB
:100AA0003E49C8617047F0B50A4600230024002182
:100AB000002500F00046B6F1004F02D1364EF16934
:100AC00001E0354E7168C0F3034583B200F440166F
:100AD000B6F5401F08D121F070612F4E766826F0E0
:100AE00070662D4F7E6012E000F48016B6F5801F10
:100AF00006D1032606FA05F4A14341F0706106E031
:100B0000460D360103FA06F6B14341F0706122B199
:100B1000460D360103FA06F6314300F00046B6F101
:100B2000004F02D11C4EF16101E01B4E7160F0BD1F
:100B300030B500228B071C0F0F2303FA04F2164B6B
:100B400008338C1053F824309343134C08348D1021
:100B500044F8253023468C1053F824308C07240F9A
:100B600000FA04F423430C4C08348D1044F825306B
:100B700030BD0A49DC3108607047000000080140C0
:100B8000000C014000100140001401400018014019
:100B9000001C0140002001400000014000002042F4
:100BA000DF48006840F00100DD4908600846406801
:100BB000DC490840DA49486008460068DA490840DC
:100BC000D74908600846006820F48020086008467D
:100BD000406820F4FE0048604FF41F0088607047B2
:100BE000CF49096821F48031CD4A11601146096866
:100BF00021F480211160B0F5803F03D0B0F5802F43
:100C00000ED106E0C649096841F48031C44A11603A
:100C100007E0C349096841F4A021C14A116000E01E
:100C200000BF00BF704710B501460022002300201E
:100C30004A11012A02D1BA4C236806E0022A02D1E5
:100C4000B74C236A01E0B64C636A01F01F0201242D
:100C500094401C400CB1012000E0002010BD38B5CC
:100C6000002000900024002500BF3120FFF7DBFFAB
:100C700005460098401C00900098B0F5A06F01D088
:100C8000002DF2D03120FFF7CEFF08B1012400E0A3
:100C90000024204638BD01460020A14A106820F0FB
:100CA000F80040EAC10010607047A0490860704732
:100CB000024600209A4B586820F47C1042EA010357
:100CC0001843974B5860704798490866704701462B
:100CD0000020934A506820F003000843506070479A
:100CE0008F48406800F00C007047014600208C4A95
:100CF000506820F0F0000843506070470146002023
:100D0000874A506820F4E06008435060704701460D
:100D10000020834A506820F4605040EAC1005060CF
:100D2000704729B17E4A527A02437D4B5A7204E0E1
:100D30007B4A527A82437A4B5A7270477B49D83148
:100D40000860704701460020754A506820F4404012
:100D50000843506070470021714A20321170704A78
:100D600082F82010012802D004280AD104E00121D1
:100D70006B4A2032117005E00521694A203211705A
:100D800000E000BF00BF70476949086070476449D0
:100D9000096A0143624A1162704765494439086033
:100DA000704730B500210022002400235C4D6D689F
:100DB00005F00C0121B1042905D0082923D105E053
:100DC0005C4D056022E05B4D05601FE0544D6D6891
:100DD00005F47012524D6D6805F48034022505EB60
:100DE00092421CB9544D554305600BE04C4D6D6863
:100DF00005F400351DB1504D5543056002E04D4DE1
:100E00005543056002E04B4D056000BF00BF444DF7
:100E10006D6805F0F0010909484D6B5C0568DD401F
:100E200045603F4D6D6805F4E061090A434D6B5C18
:100E30004568DD4085603A4D6D6805F46051C90A2A
:100E40003E4D6B5C4568DD40C560354D6D6805F411
:100E50004041890B3A4D6B5CC568B5FBF3F5056104
:100E600030BD29B12E4A526902432D4B5A6104E02C
:100E70002B4A526982432A4B5A61704729B1284A4A
:100E800092690243264B9A6104E0254A92698243A3
:100E9000234B9A61704729B1214AD2690243204B02
:100EA000DA6104E01E4AD26982431D4BDA61704761
:100EB00029B11B4AD2680243194BDA6004E0184A90
:100EC000D2688243164BDA60704729B1144A12691E
:100ED0000243134B1A6104E0114A12698243104B1A
:100EE0001A61704712494039086070470F49C86459
:100EF00070470B49C87170470948406A40F08070DC
:100F000007494862704701460020054A92680A4036
:100F10000AB1012000E00020704701498872704743
:100F2000001002400000FFF8FFFFF6FE0000424202
:100F30008004424200127A0000093D0014000020A3
:100F40002400002010B50446FE48844208D1012147
:100F5000C014FFF7ADFF0021E014FFF7A9FFC4E0C4
:100F6000B4F1804F08D101210846FFF7AEFF002100
:100F70000120FFF7AAFFB8E0F348844208D101211D
:100F80000220FFF7A2FF00210220FFF79EFFACE046
:100F9000EE48844208D101210420FFF796FF00218A
:100FA0000420FFF792FFA0E0E948844208D1012124
:100FB0000820FFF78AFF00210820FFF786FF94E052
:100FC000E448844208D101211020FFF77EFF002170
:100FD0001020FFF77AFF88E0DF48844208D1012122
:100FE0002020FFF772FF00212020FFF76EFF7CE03A
:100FF000DA48844208D101214014FFF759FF00214B
:101000006014FFF755FF70E0D548844209D10121F3
:10101000C804FFF74DFF00214FF40020FFF748FF01
:1010200063E0D048844209D101210805FFF740FF61
:1010300000214FF48010FFF73BFF56E0CA4884427E
:1010400009D101214805FFF733FF00214FF40010BB
:10105000FFF72EFF49E0C548844208D10121402016
:10106000FFF733FF00214020FFF72FFF3DE0C0488E
:10107000844208D101218020FFF727FF0021802032
:10108000FFF723FF31E0BB48844208D101218015DE
:10109000FFF71BFF0021A015FFF717FF25E0B6485B
:1010A000844209D101210804FFF702FF00214FF417
:1010B0008030FFF7FDFE18E0B048844209D10121DD
:1010C0004804FFF7F5FE00214FF40030FFF7F0FE73
:1010D0000BE0AB48844208D101218804FFF7E8FE09
:1010E00000214FF48020FFF7E3FE10BD00220288AC
:1010F000944B98420ED0994B98420BD0B0F1804F50
:1011000008D0914B984205D0904B984202D0904B1A
:10111000984204D14FF68F731A404B881A438D4B77
:10112000984207D08C4B984204D04FF6FF431A40A8
:10113000CB881A4302808B8883850B880385814B7B
:1011400098420BD0854B984208D08B4B984205D0E3
:101150008A4B984202D08A4B984201D10B7A03867F
:1011600001238382704770B5002400220023058C80
:101170004FF6FE7635400584028C8388048B4FF64B
:101180008F752C40B51E2C400D882C43751E2A40AF
:101190000D892A434D882A436A4DA8420BD06F4DD2
:1011A000A84208D0744DA84205D0744DA84202D080
:1011B000734DA84213D14FF6F7752A404D892A4343
:1011C0004FF6FB752A408D882A434FF6FF652B406A
:1011D0004FF6FF552B408D892B43CD892B438380C0
:1011E0000483CD888586028470BD70B500240022FA
:1011F0000023058C4FF6EF7635400584028C8388FA
:10120000048B48F6FF752C404FF6FF452C400D88A7
:101210004FF6FF7606EA05252C434FF6DF752A4088
:101220000D8906EA05152A434D8806EA05152A4365
:10123000444DA84202D0494DA8421DD14FF67F75BA
:101240002A404D894FF6FF7606EA05152A434FF6E8
:10125000BF752A408D8806EA05152A434FF6FF35EB
:101260002B404FF2FF752B408D8906EA85052B43F5
:10127000CD8906EA85052B4383800483CD880587C5
:10128000028470BD70B5002400220023058C4FF647
:10129000FF6635400584028C8388848B4FF68F75FA
:1012A0002C404FF6FC752C400D882C434FF6FF5513
:1012B0002A400D894FF6FF7606EA05252A434D8818
:1012C00006EA05252A431F4DA84202D0234DA84215
:1012D0001DD14FF2FF752A404D894FF6FF7606EA81
:1012E00005252A434FF6FF352A408D8806EA052555
:1012F0002A434EF6FF752B404DF6FF752B408D8926
:1013000006EA05152B43CD8906EA05152B43838094
:101310008483CD888587028470BD70B50022002348
:101320000024058C4EF6FF7635400584038C8488B6
:10133000828B48F6FF752A404FF6FF452A400D88FC
:1013400020E00000002C01400004004000080040A4
:10135000000C004000100040001400400034014028
:10136000004C014000500140005401400018004072
:10137000001C0040002000400040014000440140AB
:10138000004801404FF6FF7606EA05252A434DF650
:10139000FF752B400D8906EA05352B434D8806EA7B
:1013A00005352B43FA4DA84202D0FA4DA84208D188
:1013B0004BF6FF752C408D894FF6FF7606EA8515B2
:1013C0002C4384808283CD88A0F84050038470BD74
:1013D000828B4FF2FF331A408283828B4FF6FF736A
:1013E00003EA01231A4382837047F0B50C46154681
:1013F000002200210026078C4EF6FF7C07EA0C072E
:101400000784828B018C4FF6FF7707EA043640F69B
:10141000FF473A404FF6FF7707EA05273A434FF672
:10142000FF7707EA03373A43D94FB8420ED0D94F76
:10143000B8420BD0B0F1804F08D0D74FB84205D09A
:10144000D64FB84202D0D64FB84206D14DF6FF77FC
:10145000394046F48057394305E047F6FF57394095
:1014600044F48057394382830184F0BD828B4FF668
:10147000F3731A408283828B0A4382837047F0B5EC
:101480000C461546002200210026078C4FF6FF6C03
:1014900007EA0C070784828B018C4FF6FF7707EA77
:1014A00004264FF60C773A404FF6FF7707EA03170A
:1014B0002F433A43B64FB8420ED0B64FB8420BD086
:1014C000B0F1804F08D0B44FB84205D0B34FB84206
:1014D00002D0B34FB84206D14FF6FF57394046F419
:1014E0008077394305E04FF2FF57394044F4807765
:1014F000394382830184F0BD028B4FF2FF331A40DF
:101500000283028B4FF6FF7303EA01231A4302831F
:101510007047F0B50C461546002200210026078CC6
:101520004FF6EF7C07EA0C070784028B018C4FF61D
:10153000FF7707EA041640F6FF473A404FF6FF7779
:1015400007EA03373A434FF6FF7707EA05273A439E
:101550008F4FB8420ED08F4FB8420BD0B0F1804FB2
:1015600008D08D4FB84205D08C4FB84202D08C4F76
:10157000B84206D14FF6DF77394046F010073943BD
:1015800005E04FF65F77394044F010073943028396
:101590000184F0BD028B4FF6F3731A400283028B75
:1015A0000A4302837047F0B50C461546002200211D
:1015B000068C4FF6FE773E400684028B018C4FF678
:1015C0000C7632407E1C06EA03162E433243704EE0
:1015D000B0420ED06F4EB0420BD0B0F1804F08D069
:1015E0006D4EB04205D06D4EB04202D06C4EB0424E
:1015F00006D14FF6FD76314044F00106314305E057
:101600004FF6F576314044F0010631430283018400
:10161000F0BD70B505460C465D4885420ED05D486C
:1016200085420BD0B5F1804F08D05B48854205D08C
:101630005A48854202D05A48854200D100E000BF96
:10164000208850B92389A28861882846FFF7ABFF1C
:10165000E1882846FFF79EFF25E0208804280AD16C
:101660002389A28861882846FFF753FFE18828462E
:10167000FFF742FF17E0208808280AD12389A288B3
:1016800061882846FFF7FBFEE1882846FFF7EEFE5B
:1016900009E02389A28861882846FFF7A6FEE18831
:1016A0002846FFF795FE70BD2DE9F04105460C4632
:1016B00000260127608808B9022600E00026A088DD
:1016C000012801D1022700E001272088A0B9238941
:1016D000A28861882846FFF766FFE1882846FFF761
:1016E00059FF23893A4631462846FFF712FFE18821
:1016F0002846FFF701FF13E02389A2886188284666
:10170000FFF707FFE1882846FFF7F6FE23893A46F0
:1017100031462846FFF747FFE1882846FFF73AFFA2
:10172000BDE8F0810A884B881A438B881A43CB881E
:101730001A430B891A434B891A438B891A43A0F821
:10174000442070474FF6FF71818000210180C180E5
:101750004180017270470021018041808180C180F9
:10176000018141818181C1817047002101804180D7
:10177000012181800021C180018170470021018009
:1017800041808180C1800181418181817047000059
:10179000002C0140003401400004004000080040DB
:1017A000000C004021B1028842F00102028004E0F6
:1017B00002884FF6FE731A400280704731B1B0F8CC
:1017C000442042F40042A0F8442005E0B0F8442050
:1017D000C2F30E02A0F8442070471AB183890B436C
:1017E000838102E083898B438381704781827047C4
:1017F00041EA0203A0F8483070471AB183890B43CD
:10180000838102E083898B438381704701894FF68E
:10181000F8721140018170470A46002101894FF694
:101820008F73194011430181704730B504460D464E
:1018300029462046FFF7F0FF208940F0070020816D
:1018400030BD2DE9F04104460D4616461F46602D79
:1018500006D13B46012231462046FFF75AFE05E0FD
:101860003B46012231462046FFF79DFE2946204691
:10187000FFF7D2FF208940F007002081BDE8F0810A
:1018800030B50C4600210189C9B24FF6FF7505EA53
:101890000325154325432943018130BD2DE9F0413E
:1018A00005460E4617469846002443463A463146BA
:1018B0002846FFF7E5FF2C894FF6F870044044F006
:1018C00007044FF68F70044044F070042C81BDE88B
:1018D000F081F0B504460D4616461F463B4632469B
:1018E00029462046FFF7CCFF208940F48040208124
:1018F000F0BD0185828270470A46002101884FF6BB
:101900008F731940114301807047F0B50C4615469E
:101910001E460021002200230189028B038C4FF612
:10192000F877394021434FF6FC473A4040F201171F
:101930003A434FF6DD773B404FF6FF7707EA06174D
:101940002F433B43018102830384F0BD0A460021FB
:10195000018B4FF68F7319401143018370470A467C
:101960000021018B48F6FF7319404FF6FF7303EA1D
:1019700002231943018370470A460021818B4FF6E9
:101980008F7319401143818370470A460021818B70
:1019900048F6FF7319404FF6FF7303EA0223194319
:1019A0008183704721B1028842F08002028004E006
:1019B00002884FF67F731A400280704721B18288F7
:1019C00042F00402828004E082884FF6FB731A40E2
:1019D0008280704721B1828842F00802828004E050
:1019E00082884FF6F7731A408280704721B182884F
:1019F00042F00102828004E082884FF6FE731A40B2
:101A0000828070470A460021018B4FF6F773194018
:101A10001143018370470A460021018B4FF2FF7387
:101A200019404FF6FF7303EA0223194301837047FD
:101A30000A460021818B4FF6F773194011438183C9
:101A400070470A460021818B4FF2FF7319404FF611
:101A5000FF7303EA02231943818370470A4600217A
:101A6000018B4FF6FB7319401143018370470A46FF
:101A70000021018B4FF6FF3319404FF6FF7303EA45
:101A800002231943018370470A460021818B4FF6D8
:101A9000FB7319401143818370470A460021818BF3
:101AA0004FF6FF3319404FF6FF7303EA0223194341
:101AB000818370470A460021018B4FF67F731940DE
:101AC0001143018370470A460021018BC1F30E01C7
:101AD0004FF6FF7303EA02231943018370470A4656
:101AE0000021818B4FF67F7319401143818370472A
:101AF0000A460021818BC1F30E014FF6FF7303EA02
:101B000002231943818370470A460021018C4FF656
:101B1000FD7319401143018470470A460021018C6E
:101B20004FF6F77319401143018470470A460021AC
:101B3000018C4FF6DF7319404FF6FF7303EA02136F
:101B40001943018470470A460021018C4FF67F73C8
:101B500019404FF6FF7303EA0213194301847047DB
:101B60000A460021018C4FF6FF5319404FF6FF73D0
:101B700003EA02231943018470470A460021018CBD
:101B80004FF2FF7319404FF6FF7303EA0223194324
:101B9000018470470A460021018C4DF6FF731940FD
:101BA0004FF6FF7303EA023319430184704730B5DF
:101BB000002301248C40A3B2048C9C430484048C35
:101BC00002FA01F5ADB22C43048430BD30B50023D8
:101BD00004248C40A3B2048C9C430484048C02FA39
:101BE00001F5ADB22C43048430BD70B5034600202E
:101BF00000241846183001258D40ACB21D8CA54339
:101C00001D8409B1082909D100EB6100056825F0A0
:101C1000700505600568154305600EE00D1FC5F3EE
:101C20004E052844056825F4E045056005684FF633
:101C3000FF7606EA02263543056070BD21B10288B1
:101C400042F00202028004E002884FF6FD731A405F
:101C50000280704721B1028842F00402028004E051
:101C600002884FF6FB731A400280704721B18288C8
:101C700042F08002828004E082884FF67F731A402F
:101C80008280704702884FF6F7731A4002800288FC
:101C90000A430280704782884FF68F731A40828011
:101CA00082880A438280704702894FF6F8731A408F
:101CB000028102890A430281704702894FF67F73CD
:101CC0001A40028102890A43028170478184704769
:101CD000818570478186704701877047818770478B
:101CE000A0F84010704702884FF6FF431A40028068
:101CF00002880A43028070470146888E7047014679
:101D0000088F70470146888F70470146B1F8400040
:101D100070470146888C70470146088D704702461F
:101D20000020138A0B400BB1012000E00020704717
:101D3000CA430282704730B50246002000230024C7
:101D4000158A05EA0103958905EA010413B10CB16E
:101D5000012000E0002030BDCA430282704700002D
:101D600010B50446FB48844209D101218803FFF7DE
:101D70009FF800214FF48040FFF79AF832E0F648D0
:101D8000844209D101214804FFF79FF800214FF454
:101D90000030FFF79AF825E0F048844209D101218C
:101DA0008804FFF792F800214FF48020FFF78DF8A8
:101DB00018E0EB48844209D10121C804FFF785F8F7
:101DC00000214FF40020FFF780F80BE0E548844243
:101DD00008D101210805FFF778F800214FF48010A1
:101DE000FFF773F810BD2DE9F04786B005460E46A3
:101DF0000024A24600BFA1460027B08900B100BF61
:101E00002F462C8A4CF6FF700440F08804432C8245
:101E1000AC894EF6F3100440B088318908437189CB
:101E200008430443AC81AC8A4FF6FF400440B089BC
:101E30000443AC8201A8FEF7B4FFC648874202D132
:101E4000DDF810A001E0DDF80CA0A88900F4004046
:101E500040B10AEBCA0000EB0A1031684900B0FB40
:101E6000F1F807E00AEBCA0000EB0A1031688900BC
:101E7000B0FBF1F86420B8FBF0F004012009642104
:101E800001FB1089A88900F4004040B1322000EB2A
:101E9000C900B0FBF1F000F00700044308E0322075
:101EA00000EB09106421B0FBF1F000F00F000443D7
:101EB0002C8106B0BDE8F0874FF416510160002177
:101EC0008180C18001810C21418100218181704785
:101ED00010B502460020108A4FF2FF0318400B880D
:101EE0004C8823438C882343CC8823431843108297
:101EF00010BD0021018041808180C180704721B1E7
:101F0000828942F40052828104E082894DF6FF7397
:101F10001A4082817047F0B5034600240026002550
:101F2000002040F66A17B94200D100BF1846C1F33D
:101F3000421401F01F06012707FA06F5012C01D112
:101F40000C3004E0022C01D1103000E014301AB142
:101F500007682F43076002E00768AF430760F0BDE2
:101F60001AB1838A0B43838202E0838A8B43838284
:101F70007047028A4FF6F0731A400282028A0A43BF
:101F80000282704782894FF2FF731A4082818289F0
:101F90000A438281704721B1828942F00202828124
:101FA00004E082894FF6FD731A4082817047028AED
:101FB0004FF6DF731A400282028A0A430282704798
:101FC00021B1028A42F48042028204E0028A4BF686
:101FD000FF731A4002827047C1F308028280704783
:101FE00001468888C0F308007047818941F00101EB
:101FF00081817047028BD2B20283028B42EA0122B6
:1020000002837047028B02F47F420283028B0A43F1
:102010000283704721B1828A42F02002828204E06A
:10202000828A4FF6DF731A408282704721B1828A1A
:1020300042F01002828204E0828A4FF6EF731A4067
:102040008282704721B1828A42F00802828204E0D3
:10205000828A4FF6F7731A408282704721B18289D3
:1020600042F40042828103E08289C2F30E0282813F
:10207000704721B1828A42F40062828204E0828A3F
:102080004FF2FF731A4082827047828A4FF6FB73C9
:102090001A408282828A0A438282704721B1828AF0
:1020A00042F00202828204E0828A4FF6FD731A40F7
:1020B0008282704702460020B1F5007F00D100BF48
:1020C00013880B400BB1012000E00020704701F4A1
:1020D0000072B2F5007F00D100BFCA430280704792
:1020E00070B50246002400230025002040F66A1641
:1020F000B14200D100BFC1F3421501F01F03012618
:1021000006FA03F3012D02D19689334006E0022D31
:1021100002D1168A334001E0968A33400C12012620
:1021200006FA04F41688344013B10CB1012000E023
:10213000002070BD10B50022002340F66A14A142B1
:1021400000D100BF0A1201249440A3B2DC430480F2
:1021500010BD00000038014000440040004800402D
:10216000004C00400050004010B50446BE48844278
:1021700008D101218014FEF79BFE0021A014FEF778
:1021800097FE16E0B948844208D101210014FEF7F9
:102190009CFE00212014FEF798FE0AE0B448844219
:1021A00007D10121C013FEF790FE0021E013FEF7D6
:1021B0008CFE10BD10B50022028802F441520B883B
:1021C0004C8823438C882343CC8823430C892343A6
:1021D0004C8923438C892343CC8923431A430280AF
:1021E000838B4FF2FF74234083830B8A038210BDDD
:1021F0002DE9F04F85B005460C464FF00009022747
:102200004FF000084FF0010B0026B246A88B4FF2AA
:1022100040010840A88302202884B5F81C90A068DB
:10222000022801D100BF38E0A08810B94FF0010B9F
:1022300001E04FF0020B8D48854200D100E000BF65
:102240006846FEF7AEFDDDF800A0E088B0F5007F3F
:102250000AD14FEA1A2000EB80004000A168B0FBD1
:10226000F1F0401D86B20BE04FEA4B10BAFBF0F0E4
:1022700000EB80004000A168B0FBF1F0401D86B289
:102280000A20B6FBF0F606F00108A6EB0800C0F342
:102290004F074FF6FF7000EA0828022F01DBFF2FDF
:1022A00002DD02274FF00008E08840EA08003843CA
:1022B0002884A088A18908436188084321880843AD
:1022C00040F4006040EA0909A5F81C9005B0BDE89B
:1022D000F08F0021018041808180C1800181418196
:1022E0008181C181072101827047002101804180E5
:1022F0008180C1800221816000218181704721B1EC
:10230000028842F04002028004E002884FF6BF7368
:102310001A400280704721B1828B42F4806282832E
:1023200004E0828B4FF6FF331A408283704730B54A
:10233000002400230C110125A540ABB21AB18588F9
:102340001D43858002E085889D43858030BD1AB19C
:1023500083880B43838002E083888B4383807047AC
:10236000818170470146888970474FF6FF6291422C
:1023700004D0028842F48072028004E002884FF6A2
:10238000FF631A400280704721B1828842F0040244
:10239000828004E082884FF6FB731A408280704787
:1023A00002884FF2FF731A40028002880A430280BB
:1023B0007047018841F480510180704721B1028843
:1023C00042F40052028004E002884DF6FF731A4086
:1023D0000280704702460020012901D0108B00E0E6
:1023E000908A70470146088A7047B1F5804F04D142
:1023F000028842F48042028004E002884BF6FF73B8
:102400001A40028070470246002013890B400BB12E
:10241000012000E000207047CA4302817047F0B5F8
:102420000246002000240023002501F00F070126AA
:10243000BE40B4B20B1101269E40B3B2968806EAA4
:1024400003051689264016B10DB1012000E00020D9
:10245000F0BD10B5002201F00F040123A3409AB291
:10246000D343038110BD000000300140003800401C
:10247000003C004008B501214020FEF7FFFC482049
:102480008DF803001820ADF8000003208DF802003D
:1024900069460248FEF736FA08BD00000018014000
:1024A00008B501214820FEF7E9FC2020ADF8000026
:1024B00010208DF8030003208DF802006946524871
:1024C000FEF720FA20215048FEF7C9FA2020ADF887
:1024D000000069464D48FEF715FA20214B48FEF7EB
:1024E000BEFA08BD10B54AA14B4804F04DFD70B1CD
:1024F00001204A49087020214448FEF7B0FA202103
:102500004148FEF7AEFA46A004F07AFB12E047A17C
:10251000414804F039FD68B100204049087020218D
:102520003948FEF79CFA20213848FEF79AFA41A074
:1025300004F066FB42A1384804F026FD30B10120CA
:102540004149087041A004F05BFB16E043A132480A
:1025500004F01AFD30B100203B49087041A004F09E
:102560004FFB0AE043A12C4804F00EFD28B10220E5
:102570003549087041A004F043FB44A1264804F00B
:1025800003FD30B100204349087043A004F038FB3C
:102590000AE045A1204804F0F7FC28B101203D499C
:1025A000087043A004F02CFB45A11B4804F0ECFC90
:1025B00030B101204449087044A004F021FB0AE036
:1025C00045A1154804F0E0FC28B100203E49087000
:1025D00043A004F015FB45A10F4804F0D5FC30B131
:1025E00001204449087044A004F00AFB0AE045A118
:1025F000094804F0C9FC28B100203E49087043A0F6
:1026000004F0FEFA10BD0000000C0140001801406B
:102610006C656431000000001811002029000020C2
:102620006C656420697320310D0A00006C656430AC
:10263000000000006C656420697320300D0A000002
:102640006D6F746F723100002A0000206D6F746F1F
:102650007220697320310D0A000000006D6F746FE5
:10266000723000006D6F746F7220697320300D0A34
:10267000000000006D6F746F723200006D6F746F38
:102680007220697320320D0A0000000073687569BA
:10269000300000002C0000207368756962656E6769
:1026A00020697320310D0A007368756931000000DC
:1026B0007368756962656E6720697320320D0A0060
:1026C00066656E67310000002B00002066656E674E
:1026D00020697320310D0A0066656E6730000000C6
:1026E00066656E6720697320300D0A00686F74316B
:1026F000000000002D000020686F742069732031F5
:102700000D0A0000686F743000000000686F7420CC
:10271000697320300D0A00002DE9F04107460C4690
:10272000154640215948FFF7D2FC00260CE014F86A
:10273000011B3846FFF750FC00BF40213846FFF729
:10274000B9FC0028F9D0761CAE42F0D3BDE8F08188
:1027500010B540F225514D48FFF7C2FCE0B14B489F
:10276000FFF73EFCC4B24A48008800F4004098B924
:1027700047480068B0F5167F08D2454801680068F0
:10278000401C434A10604348445405E040480068F8
:1027900040F400403E49086010BD10B586B00446C4
:1027A00001210820FEF76AFB01214804FEF773FBB4
:1027B0003648FFF7D5FA0420ADF8100003208DF855
:1027C000120018208DF8130004A93348FEF79AF878
:1027D0000820ADF8100004208DF8130004A92E483D
:1027E000FEF790F800940020ADF80400ADF8060064
:1027F000ADF80800ADF80C000C20ADF80A006946F1
:102800002248FFF7F0FA01212048FFF778FB012268
:1028100040F225511D48FFF77EFB26208DF814005D
:1028200002208DF8150003208DF8160001208DF888
:10283000170005A8FDF79DFF00201549086006B0A8
:1028400010BD0FB438B505A800901448009A04993B
:1028500004F0C4F900200090104804F0CBFB85B2CE
:1028600000240DE000BF40210848FFF723FC0028AA
:10287000F9D00A48015D0548FFF7AEFB601C84B241
:10288000AC42EFDB38BC5DF814FB000000440040B4
:10289000300000206800002000080140C002002035
:1028A00010B5B9A000F0D5FAB9A000F0D2FABCA0DA
:1028B00000F0CFFABDA000F0CCFABFA000F0C9FA3A
:1028C000C8A000F0C6FAD3A000F0C3FA10BD2DE9ED
:1028D000F04104460E4615461CE04FF48061D14895
:1028E00004F0B7FC0020D0490860204604F082FBC9
:1028F00007463A462146CD4800F0ECF9A8B200F070
:10290000DAFE3146C74804F03FFB00B103E0642023
:1029100000F0D1FEE1E700BFBDE8F0812DE9F04114
:1029200006460F4614460025BE4804F063FB804669
:102930004146BC4804F08DFC0020BB4908600C22D5
:10294000BBA1BF4800F0C6F900BF09E0642000F059
:10295000B2FEBCA1B34804F017FB00B102E06D1C4D
:10296000A542F3DB00BF3946304602F088FEB64987
:102970000860C82000F09FFEB34800684268B24873
:1029800000680168AE4800F0A5F94FF4FA7000F055
:1029900092FEAD4802F0B8FCC82000F08CFE032285
:1029A000AAA1A24800F096F9322000F084FEBDE80A
:1029B000F08110B588B01C2101A804F06CFC4FF424
:1029C0008061A34804F045FCA2A1A14804F07CFB6F
:1029D000A148007890B9A1A19D4804F075FB01249D
:1029E00006E0A048015D601E01AA1154601CC4B23B
:1029F000042CF6DB01209849087042E096480078E4
:102A0000012814D198A1924804F05EFB012408E04B
:102A1000944904F10A00095C601E01AA1154601C6B
:102A2000C4B2032CF4DB02208B49087029E08A48E9
:102A30000078022813D18EA1854804F045FB0124BB
:102A400007E08849201D095C601E01AA1154601C22
:102A5000C4B2062CF5DB00207F49087011E086A186
:102A60007B4804F031FB012406E07E48015D601ED6
:102A700001AA1154601CC4B2042CF6DB1420764960
:102A8000087001A9724804F01FFB7DA1704804F092
:102A90001BFB08B010BD10B500244FF480616148E5
:102AA00004F0D7FB00206049086000BF09E0642003
:102AB00000F001FE63A15B4804F066FA00B102E099
:102AC000641C282CF3DB00BFFFF773FF60496DA087
:102AD00003F0D4FF5C490860084600684268084675
:102AE00000680168564800F0F5F8574802F00CFC01
:102AF0004FF4FA7000F0DFFDC82000F0DCFD10BDDF
:102B000070B50446002600254FF48061454804F066
:102B1000A0FB0020444908600E225CA1434800F05D
:102B2000D9F800BF2AE0642000F0C5FD5BA13D4854
:102B300004F02AFA10B16FF0030621E05AA13948D7
:102B400004F022FA08B100261AE05AA1354804F030
:102B50001BFA10B16FF0010612E059A1314804F0E0
:102B600013FA10B16FF004060AE058A12D4804F0E2
:102B70000BFA10B14FF0FF3602E06D1CA542D2DB1C
:102B800000BF304670BD000041540D0A0000000037
:102B900041542B43574D4F44453D310D0A00000031
:102BA00041542B5253540D0A0000000041542B4352
:102BB000494653520D0A000041542B43574A415095
:102BC0003D22B5E7D7D3B4B4D0C2CAB5D1E9CAD291
:102BD000222C2231323334353637383930220D0A3F
:102BE0000000000041542B43495053544152543D7E
:102BF00022544350222C226A6A66616564702E68F2
:102C0000656465766963652E636F6D222C3837368F
:102C10000D0A000041542B4349504D4F44453D316E
:102C20000D0A000018090020380000200044004070
:102C300041542B43495053454E440D0A00000000B7
:102C4000004800403E000000340000202B2B2B00E9
:102C5000180500202C3B00004A00002077656E64B8
:102C6000752C00001812002073686964752C000030
:102C70006C696768742C00006368757368692C0060
:102C80003B000000343037313439360041542B4397
:102C900049505354415455530D0A00005354415464
:102CA00055533A34000000005354415455533A33BD
:102CB000000000005354415455533A3200000000C4
:102CC0005354415455533A35000000004552524F79
:102CD000520000002DE9F04107460C461546402100
:102CE0006E48FFF7F4F900260CE014F8011B384693
:102CF000FFF772F900BF40213846FFF7DBF90028E3
:102D0000F9D0761CAE42F0D3BDE8F08110B563482F
:102D1000008800F00F0018B16048001D048838E0FA
:102D20005E48008800F02000002832D05B48001D7B
:102D300004885B4802680068401C594B1860594879
:102D400084547B2C02D101205749087056480078E2
:102D500001281ED1554802680068401C534B18607A
:102D6000534884547D2C03D018460068FF2810D3A4
:102D700000204D4908704E494EA003F041FFFFF777
:102D8000B1FB4A4801684A4804F063FA0020474909
:102D9000086010BD10B586B0044601210820FEF77A
:102DA0006DF801218804FEF776F83C48FEF7D8FF5D
:102DB0004FF48060ADF8100003208DF81200182049
:102DC0008DF8130004A93C48FDF79CFD4FF400600A
:102DD000ADF8100004208DF8130004A93648FDF763
:102DE00091FD00940020ADF80400ADF80600ADF8A8
:102DF0000800ADF80C000C20ADF80A006946274821
:102E0000FEF7F1FF01212548FFF779F8012240F292
:102E100025512248FFF77FF827208DF81400002065
:102E20008DF815008DF8160001208DF8170005A803
:102E3000FDF79FFC41F61F4140F2E73000F057F8E4
:102E400000201749086000211C48FEF7ABFC06B0C3
:102E500010BD0FB438B505A800901948009A049920
:102E600003F0BCFE00200090154804F0C3F885B2C2
:102E700000240DE000BF40210848FFF71BF900289F
:102E8000F9D00F48015D0548FFF7A6F8601C84B231
:102E9000AC42EFDB38BC5DF814FB0000004800409A
:102EA0003800002018090020400000203C000020CD
:102EB0001811002025730000000C01400014004090
:102EC000180D002010B501211F48FEF734FF68B12E
:102ED0001E48008840F400401C49088001211A481F
:102EE000FEF73AFF00211848FEF75CFC10BD7FB5E5
:102EF00005460C4601212020FDF7CDFFADF804501A
:102F0000ADF800400020ADF80600ADF802006946BB
:102F10000D48FEF7EBF8012211460B48FEF75DFC69
:102F200001210948FEF73EFC37208DF80C000020F7
:102F30008DF80D0002208DF80E0001208DF80F0095
:102F400003A8FDF716FC7FBD0014004038000020E8
:102F500000B587B001214FF48470FDF78FFF4FF467
:102F60008050ADF8180010208DF81B0003208DF85C
:102F70001A0006A9CA48FDF7C5FC4FF48051C8489D
:102F8000FDF76DFD4FF4C070ADF8180006A9C548F7
:102F9000FDF7B8FC4020ADF8180028208DF81B0084
:102FA00006A9C048FDF7AEFC4FF4E071BD48FDF73F
:102FB00058FD00F0AEF90021BB48FFF7A0F9002052
:102FC000ADF804004FF48270ADF806000020ADF8B3
:102FD0000800ADF80A00ADF80C004FF40070ADF831
:102FE0000E001820ADF810000020ADF812000720E8
:102FF000ADF8140001A9AC48FFF7DCF80121AA489C
:10300000FFF77DF90020A94908600120A849C1F80F
:103010009C0107B000BD2DE9F04107460D4616465C
:103020000020A249091F0860384600F04BF980468D
:10303000002405E0FF2000F045F92855601CC4B2CB
:10304000B442F7DB01209949091F08604046BDE8FA
:10305000F0812DE9F04107460C46154600209349C2
:10306000091F0860384600F02DF98046002605E06B
:1030700014F8010B00F026F9701CC6B2AE42F7DB63
:1030800001208A49091F08604046BDE8F0811CB54F
:1030900088A103C9CDE90001082000F080F90522CC
:1030A00069463020FFF7D5FF052269461020FFF75B
:1030B000B2FF002406E01DF80400A52800D003E0BC
:1030C000601CC4B2052CF6DB00BF052C01D001202A
:1030D0001CBD0020FCE770B505460C460020734976
:1030E000091F0860284600F0EDF80646204600F06B
:1030F000E9F801206E49C1F89C01304670BD70B5F9
:10310000044600206949091F0860204600F0DAF8EB
:10311000FF2000F0D7F8054601206549C1F89C0161
:10312000284670BD70B50546102000F038F9002023
:103130005E49086020222946A020FFF78AFF01206F
:103140005B49C1F8A00100BF5848883800680128D1
:10315000FAD00720FFF7D3FF044621462720FFF7C8
:10316000BAFF04F0100028B1FF21E120FFF7B3FF00
:10317000102070BD04F0200008B12020F9E7FF20E6
:10318000F7E710B500204949086005224B49302077
:10319000FFF75FFF00212120FFF79DFF0021222084
:1031A000FFF799FF00212420FFF795FF002125203C
:1031B000FFF791FF0F212620FFF78DFF0E21202022
:1031C000FFF789FF01203A49C1F8A00110BD10B5F1
:1031D000002036490860052238493020FFF739FFC2
:1031E00000212120FFF777FF00212220FFF773FF46
:1031F00000212420FFF76FFF28212520FFF76BFF18
:103200000F212620FFF767FF0E212020FFF763FF25
:1032100001202749C1F8A00110BD70B50446102057
:1032200000F0BDF80720FFF76AFF05462946272072
:10323000FFF751FF05F0400050B1202221466120E8
:10324000FFF7E9FEFF21E220FFF745FF002070BDF8
:103250000120FCE710B50020144908600522184938
:103260002A20FFF7F6FE00212120FFF734FF01217D
:103270002220FFF730FF00212520FFF72CFF20211F
:103280003120FFF728FF0F212620FFF724FF0F2111
:103290002020FFF720FF01200549C1F8A00110BD43
:1032A000000C01400020014000380040A0012442F1
:1032B00000002442A5A5A5A5A500000052A1000874
:1032C00057A1000870B50546002405E0601CC4B293
:1032D000C82C01DD002070BD02213A48FFF793F8A9
:1032E0000028F3D029463748FFF73AF8002405E0D4
:1032F000601CC4B2C82C01DD0020ECE7012131487C
:10330000FFF781F80028F3D02E48FFF72BF8C0B262
:10331000E1E700B587B001210820FDF7AFFD0121ED
:103320008803FDF7B8FD4FF46040ADF81800182091
:103330008DF81B0003208DF81A0006A92248FDF71E
:10334000E1FA4FF460412048FDF789FB0020ADF819
:1033500004004FF48270ADF806000020ADF80800BC
:103360000220ADF80A000120ADF80C004002ADF8D3
:103370000E003820ADF810000020ADF81200072034
:10338000ADF8140001A90F48FEF714FF01210D4804
:10339000FEF7B5FFFF20FFF795FF07B000BD10B5A2
:1033A0000446084800884FF6C77108400549088060
:1033B000084600882043088001210248FEF79FFF4D
:1033C00010BD000000380040000C014010B5012184
:1033D0008807FEF7B0FC00287AD081480078401CAE
:1033E0007F49087008460078022871DD00200870C7
:1033F0007C480068401C7B490860084600680A2831
:1034000001DB00200860774800680A2190FBF1F298
:1034100001FB120006287CDC73480078012805D1E6
:103420004C20724908704B20487007E06E480078C5
:1034300020B94C206D490870472048706C480078CE
:10344000012805D14D20694988704B20C87011E0D2
:103450006748007828B94D20644988704720C870B3
:1034600008E063480078022804D14D205F49887045
:103470005320C8705F480078012805D142205B497D
:1034800008714B20487107E05A48007820B9422063
:10349000564908714720487157480078012805D1DE
:1034A0004620524988714B20C87107E05248007885
:1034B00020B946204D4988714720C8714F4800788F
:1034C000012806D14820494908724B20487208E07B
:1034D0004EE04A48007820B9482044490872472005
:1034E00048720020414988723E4800680A2190FBDA
:1034F000F1F201FB1200002809DB3A48006890FB5A
:10350000F1F201FB1200032801DAFFF760FE3748F1
:1035100000E00CE0FFF706FE202804D1334938A074
:1035200003F06EFB28E039A003F06AFB24E02D488D
:1035300000680A2190FBF1F201FB120006281BDD56
:10354000FFF788FE322000F0B6F83248FFF765FE3C
:1035500078B93148007828B9002030490870142023
:103560002D49087000202B4948732DA003F048FB1B
:1035700002E02EA003F044FB01218807FEF7ECFBDC
:1035800010BD7FB505460C4601210846FDF783FCBA
:10359000ADF80450ADF800400020ADF80600ADF8DD
:1035A000020069464FF08040FDF7A0FD0122114660
:1035B0009007FEF712F901218807FEF7F3F81C20A7
:1035C0008DF80C0001208DF80D0002208DF80E0002
:1035D00001208DF80F0003A8FDF7CBF87FBD000098
:1035E0004B0000204400002029000020261200206B
:1035F0002A0000202C0000202B0000202D0000209D
:103600005458312049532025730D0A004552524F1A
:10361000520D0A00181200204C0000204A00002021
:1036200052582049532025730D0A00005258206932
:1036300073204552524F520D0A00000010B56FF032
:103640000400FDF7E0F82E4800682E49B0FBF1F0C9
:103650002D4908700846007800EB4001C1EBC0100E
:103660004FF6FF7101EAC0002849088010BD0146ED
:10367000254A12784A434FF0E0235A6100229A61AA
:103680001A46126942F001021A6100BF4FF0E022AF
:10369000106900F001021AB100F48032002AF5D05E
:1036A0004FF0E022126922F001024FF0E0231A618C
:1036B00000229A6170470146144A12884A434FF02B
:1036C000E0235A6100229A611A46126942F001020F
:1036D0001A6100BF4FF0E022106900F001021AB138
:1036E00000F48032002AF5D04FF0E022126922F077
:1036F00001024FF0E0231A6100229A617047000036
:103700000000002000127A004E000020500000202F
:10371000014600BF704700BF494A128802F04002CC
:10372000002AF9D0C2B2464B1B1D1A80704710B553
:1037300086B00446012144F20400FDF79FFB4FF4DC
:103740000070ADF8140003208DF8160018208DF8D5
:10375000170005A93B48FDF7D5F84FF48060ADF898
:10376000140004208DF8170005A93648FDF7CAF8A3
:1037700025208DF8000003208DF801008DF802004F
:1037800001208DF803006846FCF7F3FF0194002048
:10379000ADF80800ADF80A00ADF80C00ADF8100067
:1037A0000C20ADF80E0001A92548FEF71CFB0122F4
:1037B00040F225512248FEF7AEFB01212048FEF7DA
:1037C0009EFB06B010BD10B540F225511C48FEF717
:1037D00087FC10B31A48FEF703FCC4B21A480088ED
:1037E00000F40040C8B91848008800F4804060B177
:1037F0000A2C03D000201449088020E012480088D9
:1038000040F400401049088019E00D2C06D10E4804
:10381000008840F480400C49088010E00A48008885
:10382000C0F30D0009490C5407480088401C0649A4
:10383000088008460088C72801DD0020088010BDE8
:1038400000380140000801405800002031120020DB
:10385000FE480068704770B504460D462CB9AC426E
:1038600001D0012070BD0020FCE70DB90120F9E76F
:1038700005E0207808B90020F4E7641C6D1C20786E
:1038800003F09EF90646287803F09AF98642F0D0B4
:10389000207803F095F90646287803F091F9301A5C
:1038A000E0E770B50446204603F0A4FB451C28461B
:1038B000E7490968884706460EB9002070BD2A46C8
:1038C0002146304603F00CFC3046F7E730B9E149B9
:1038D000DF4A1160E049E14A11607047016809B1AF
:1038E000016800E0DB49DA4A1160416809B14168CA
:1038F00000E0D949D94A116000BFEEE710B5282091
:10390000D3490968884704461CB12821204603F0A2
:10391000C2FC204610BD70B5044622E02568A0898F
:1039200000F4807020B9A06810B1A068FFF7F3FF21
:10393000A08900F4807028B9206918B1C7492069AE
:1039400009688847A08900F4007028B9206A18B176
:10395000C249206A096888472046C04909688847E3
:103960002C46002CDAD170BD2DE9F04F8BB0834688
:103970008A460020044605460026B94F00218846A5
:1039800089460990012008909AF800002D2802D15C
:10399000B44F0AF1010A9AF80000302801D10AF167
:1039A000010A9AF80000312822DB9AF80000392831
:1039B0001EDC00BF1AF8011BA1F1300005F07BFFEF
:1039C0000022A94BCDE906012046294605F0C6FF95
:1039D000CDE90401DDE9062305F0EEFC04460D46C1
:1039E0009AF80000302803DB9AF800003928E1DD5E
:1039F0009AF800002E2830D19AF8010030282CDBEC
:103A00009AF80100392828DC0AF1010A00BF1AF8E7
:103A1000011BA1F1300005F04EFF0022924BCDE9D1
:103A200006012046294605F099FFCDE90401DDE9AC
:103A3000062305F0C1FC04460D460022884B404693
:103A4000494606F0B1F9804689469AF800003028C8
:103A500003DB9AF800003928D9DD9AF800006528C0
:103A600003D09AF80000452823D10AF1010A9AF8F8
:103A700000002B2802D10AF1010A08E09AF80000A0
:103A80002D2804D14FF0FF3008900AF1010A08E018
:103A90001AF8010B3038099901EB810100EB410064
:103AA00009909AF80000302803DB9AF800003928C2
:103AB000EEDDDDE9082101FB02F005F0FCFE4246E7
:103AC0004B46CDE9000105F077FC02460B46CDE9F7
:103AD00002010020644904F02DFF22462B46CDE967
:103AE00006013046394605F039FFCDE90401DDE92C
:103AF000062305F033FF04460D46CBE90645204674
:103B0000294605F0A9FECBF814000320CBF80C00E1
:103B100050460BB0BDE8F08F0146491E41EA6101F5
:103B200041EAA10141EA211141EA212141EA214171
:103B3000481C70472DE9F04104460E460CB1206840
:103B400010B90020BDE8F081A06806446068B0426A
:103B500003DBA16820680844F4E73046FFF7DCFF88
:103B6000074638463A490968884705463DB93B4902
:103B7000206809688847002060602060E2E725B17E
:103B80002846D4E9001203F0ABFA344920680968EA
:103B9000884767602560A0682844D3E770B504466D
:103BA0000CB1206808B9002070BDA16820684518D4
:103BB000284603F01FFAA1680844F5E72DE9FC4701
:103BC00082460E464FF00009DAE906450022134608
:103BD0002046294605F004FE13D12EB102213046BD
:103BE000FFF7A8FF814604E00220194909688847C9
:103BF0008146B9F1000F03D01CA00088A9F800008D
:103C0000A0E0DAF8140005F056FE074622462B46DF
:103C100006F0CAF821F000410022154BCDE9000161
:103C200005F060FE3FD8134A134B2046294605F0A5
:103C300059FE38D80022114B2046294605F08CFF4A
:103C400031D80EB3152130461AE000005C00002088
:103C500060000020156B0008736B000864000020F2
:103C60000000F03F0000F0BF0000244030000000E2
:103C70000000B03C0000C0FFFFFFDF410000E0C1DA
:103C8000FFF758FF814604E01520FA490968884784
:103C90008146B9F1000F55D0F7A14846DAF8142053
:103CA00002F0BAFF4EE02EB140213046FFF742FF4E
:103CB000814604E04020EF49096888478146B9F110
:103CC000000F3FD02046294604F0C6FD0746224695
:103CD0002B4606F069F821F000410022E74BCDE9C0
:103CE000000105F0FFFD0FD825F000412746E44A0A
:103CF000E44B384605F0F6FD06D222462B46E2A1FB
:103D0000484602F089FF1DE025F000412746E04AC1
:103D1000E04B384605F0E6FD07D325F000410022D0
:103D2000DD4B384605F018FF06D222462B46DBA1B4
:103D3000484602F071FF05E022462B46D8A14846CE
:103D400002F06AFF4846BDE8FC8701460022087879
:103D5000302806DB0878392803DC0878303802443C
:103D600015E00878412806DB0878462803DC087847
:103D7000373802440BE00878612806DB08786628AB
:103D800003DC08785738024401E000207047120134
:103D9000491C0878302806DB0878392803DC0878C5
:103DA0003038024415E00878412806DB08784628B8
:103DB00003DC0878373802440BE00878612806DB1A
:103DC0000878662803DC08785738024401E00020B0
:103DD000DCE71201491C0878302806DB087839280E
:103DE00003DC08783038024415E00878412806DB07
:103DF0000878462803DC0878373802440BE0087856
:103E0000612806DB0878662803DC08785738024406
:103E100001E00020BAE71201491C0878302806DBCF
:103E20000878392803DC08783038024415E008782F
:103E3000412806DB0878462803DC08783738024436
:103E40000BE00878612806DB0878662803DC087830
:103E50005738024401E0002098E7104696E72DE924
:103E6000F05F8346884608F10104002798F80000B7
:103E7000222805D08B48C0F800800020BDE8F09FC4
:103E800004E014F8011B5C2900D1641C207822286E
:103E900004D0207810B1781C0700F2D1781C754945
:103EA000096888478146B9F1000F01D10020E5E794
:103EB00008F101044D469EE020785C2804D014F8F7
:103EC000010B05F8010B96E0641C2078722818D0CD
:103ED00006DC622809D066280BD06E287ED10CE063
:103EE000742812D07528F9D113E0082005F8010BC9
:103EF0007FE00C2005F8010B7BE00A2005F8010BA0
:103F000077E00D2005F8010B73E0092005F8010B9F
:103F10006FE0601CFFF719FF0646241DB6F55C4FE5
:103F200002D3B6F5604F00D306B962E0B6F5584F3C
:103F30001CD3B6F55C4F19D260785C2802D1A0780A
:103F4000752800D055E0E01CFFF7FFFE8246A41D57
:103F5000BAF55C4F02D3BAF5604F00D349E0C6F31F
:103F60000901504661F39F2000F580360427802E1A
:103F700001D2012708E0B6F5006F01D2022703E065
:103F8000B6F5803F00D203273D44012F20D0022FF9
:103F900015D0032F0AD0042F24D106F0BF0040F023
:103FA0008001681E05460170B60900BF06F0BF001B
:103FB00040F08001681E05460170B60900BF06F09A
:103FC000BF0040F08001681E05460170B60900BFC1
:103FD0003548C05D3043C1B2681E00E005E00546CB
:103FE000017000BF00BF3D4403E0207805F8010BDD
:103FF00000BF00BF641C2078222803D0207800284E
:104000007FF45AAF002028702078222800D1641C49
:10401000CBF810900420CBF80C0020462EE72DE9B9
:10402000F05F804689460027BB46454611E0287868
:10403000002802DD2878202805DB2878222802D0F5
:1040400028785C2801D1012000E0002040EA0B0B19
:104050006D1C28780028EAD1BBF1000F3ED1A5EBFA
:104060000807B9F1000F21D0F91C4846FFF762FD9F
:10407000064620E060000020256400000000B03CFF
:1040800044F3C2E4E4E9634C252E306600000000EE
:104090008DEDB5A0F7C6B03E65CDCD4125650000DC
:1040A000256600005C0000205CA10008F81CF749B0
:1040B00009688847064616B90020BDE8F09F3446D7
:1040C000222004F8010B4146204602F06FFF222017
:1040D000E0550021781C21543046EEE7B8F1000F7E
:1040E00016D1B9F1000F05D003214846FFF722FD94
:1040F000064604E00320E5490968884706460EB9EC
:104100000020DAE7E2A1304602F050FF3046D4E763
:10411000454695F800A00DE05146DEA002F02AFFCA
:1041200008B17F1C03E0BAF1200F00DA7F1D6D1C7F
:1041300095F800A0BAF1000F02D0781C0700EBD16F
:10414000B9F1000F05D0F91C4846FFF7F3FC06460D
:1041500004E0F81CCD490968884706460EB90020DE
:10416000ABE734464546222004F8010B47E02878A7
:104170001F280ADD2878222807D028785C2804D058
:1041800015F8010B04F8010B39E05C2004F8010B71
:1041900015F8011B8A460C2919D006DC082912D013
:1041A000092920D00A2922D115E00D2917D022296A
:1041B00005D05C291BD15C2004F8010B1EE02220F5
:1041C00004F8010B1AE0622004F8010B16E06620E7
:1041D00004F8010B12E06E2004F8010B0EE07220CF
:1041E00004F8010B0AE0742004F8010B06E05246C3
:1041F000AAA1204602F010FD641D00BF00BF287870
:104200000028B4D1222004F8010B002004F8010B8F
:10421000304652E770B504460D4629462069FFF73F
:10422000FEFE70BD00E0401C20B1017811B10178A4
:104230002029F8DD70472DE9F04706460C46207826
:104240007B2804D0974804600020BDE8F087062052
:10425000F060601CFFF7E6FF044620787D2801D15E
:10426000601CF2E7FFF74AFB0546B060B06808B98A
:104270000020EAE72046FFF7D5FF80464146284662
:10428000FFF7EDFD0746FFF7CDFF04460CB9002010
:10429000DBE7286928620020286120783A2803D0CB
:1042A000804804600020D0E7601CFFF7BBFF804619
:1042B0004146284600F09BF80746FFF7B3FF044647
:1042C0000CB90020C1E732E0FFF718FB07460FB931
:1042D0000020BAE72F607D603D46601CFFF7A2FF1B
:1042E000814649462846FFF7BAFD8046FFF79AFF08
:1042F00004460CB90020A8E728692862002028613C
:1043000020783A2803D06748046000209DE7601CAD
:10431000FFF788FF81464946284600F068F8804646
:10432000FFF780FF04460CB900208EE700BF20781D
:104330002C28C9D020787D2801D1601C85E75948F8
:104340000460002081E72DE9F04705460C462078FF
:104350005B2804D0534804600020BDE8F0870520A6
:10436000E860601CFFF75EFF044620785D2801D1FD
:10437000601CF2E7FFF7C2FA0646A860A86808B911
:104380000020EAE72046FFF74DFF804641463046D1
:1043900000F02DF80746FFF745FF04460CB9002052
:1043A000DBE718E0FFF7AAFA07460FB90020D4E7C9
:1043B00037607E603E46601CFFF734FF8146494609
:1043C000304600F014F88046FFF72CFF04460CB985
:1043D0000020C2E700BF20782C28E3D020785D2899
:1043E00001D1601CB9E72F4804600020B5E770B523
:1043F00005460C460CB9002070BD04222AA12046B7
:1044000002F017FE18B90220E860201DF4E705222B
:1044100027A1204602F00DFE18B90020E860601DBB
:10442000EAE7042224A1204602F003FE20B901207D
:10443000E8606861201DDFE72078222804D121464A
:104440002846FFF70CFDD7E720782D2805D02078E7
:10445000302807DB2078392804DC21462846FFF77E
:1044600083FAC9E720785B2804D121462846FFF764
:104470006AFFC1E720787B2804D121462846FFF750
:10448000DAFEB9E7074804600020B5E760000020C5
:1044900022220000225C080C0A0D09007525303428
:1044A000780000005C0000206E756C6C000000005D
:1044B00066616C7365000000747275650000000031
:1044C0002DE9F04780460D4616460024FFF716FA00
:1044D00007460020FE4908600FB9BDE8F087404656
:1044E000FFF7A0FE814649463846FFF780FF0446A5
:1044F00024B93846FFF70FFA0020EEE766B12046F0
:10450000FFF790FE0446207830B13846FFF703FAF3
:10451000EF4804600020E0E705B12C603846DCE796
:1045200010B50446002211462046FFF7C9FF10BD12
:104530002DE9FF4F89B0884616461F460020089097
:10454000079006904FF0070A00250998D0F80890C8
:10455000002002900190009004E00298401C02901C
:10456000D9F80090B9F1000FF7D10298002835D1A1
:1045700057B116B108F1040000E0032001463846A7
:10458000FFF7D8FA069009E016B108F1040100E03F
:1045900003210846CF49096888470690069818B94C
:1045A00000200DB0BDE8F08F069C7B2004F8010BC5
:1045B00066B10A2004F8010B002503E0092004F885
:1045C000010B6D1CA8F10100A842F7DC7D2004F866
:1045D000010B002004F8010B0698E2E7002F77D0CA
:1045E000BD680EB1022000E0012082460AF10101FF
:1045F0003846FFF79FFA04460CB90020D1E77B202C
:1046000004F8010B16B10A2004F8010B00202070F9
:10461000B8685044B8600998D0F8089008F10108CB
:1046200068E0B6B141463846FFF784FA04460CB953
:104630000020B6E70020039005E0092004F8010BF4
:104640000398401C039003984045F6DBB86840444B
:10465000B8603946D9F82000FFF7E1FC3846FFF78B
:104660009DFAB8600EB1022000E00120824651465A
:104670003846FFF75FFA04460CB9002091E73A206C
:1046800004F8010B16B1092004F8010BB868504476
:10469000B8603B4632464146484600F078FA384614
:1046A000FFF77CFAB8600EB1012000E00020D9F8D5
:1046B000001009B1012100E0002100EB010A0AF11C
:1046C00001013846FFF736FA044614B9002068E7BE
:1046D00034E0D9F8000010B12C2004F8010B16B119
:1046E0000A2004F8010B00202070B8685044B8601C
:1046F000D9F80090B9F1000F93D116B108F101007B
:1047000000E0022001463846FFF714FA04460CB9CF
:10471000002046E74EB1002503E0092004F8010B14
:104720006D1CA8F10100A842F7DC7D2004F8010B04
:104730000020207038682844069005E1029988001E
:104740006449096888470890089808B9002028E754
:10475000029988005F49096888470790079828B937
:104760005D4908980968884700201AE70298810087
:10477000089802F090FD02988100079802F08BFDE6
:104780000998D0F8089008F1010806B1C2442EE05B
:104790000021D9F82000FFF742FC0490079941F866
:1047A0002500002332464146484600F0F0F92946EC
:1047B0006D1C0590089A42F82100049898B105985C
:1047C00088B1059802F016FC8346049802F012FCAA
:1047D0000BEB0001891C16B108F1020000E000207B
:1047E0000844824401E001200190D9F80090B9F119
:1047F000000FCDD1019820B9504636490968884745
:104800000690069808B901200190019818B3002578
:1048100014E0079850F8250028B1079951F82500B1
:104820002D4909688847089850F8250028B108994B
:1048300051F825002849096888476D1C029885426F
:10484000E7DB2549079809688847234908980968DC
:1048500088470020A5E67B21069801700698441C35
:1048600016B10A2004F8010B0020207000254FE04B
:104870005EB10020039005E0092004F8010B0398C5
:10488000401C039003984045F6DB079951F825003A
:1048900002F0B0FB0090079850F825102046009ACF
:1048A00002F01EFC009804443A2004F8010B16B1F3
:1048B000092004F8010B089850F82510204602F052
:1048C00075FB089951F8250002F094FB044405E0BB
:1048D0005C00002060000020640000200298401E60
:1048E000A84202D02C2004F8010B16B10A2004F8CB
:1048F000010B00202070079951F82500FE49096836
:104900008847089951F82500FB49096888476D1CBC
:1049100002988542ACDBF849079809688847F64950
:104920000898096888474EB1002503E0092004F87B
:10493000010B6D1CA8F10100A842F7DC7D2004F8F2
:10494000010B002004F8010B06982AE62DE9FF4F21
:1049500085B092461E464FF0000B05200390059847
:10496000D0F80880D946002500200290019003E08D
:1049700009F10109D8F80080B8F1000FF8D1B9F1B8
:10498000000F16D12EB103213046FFF7D3F883462E
:1049900004E00320D949096888478346BBF1000F2A
:1049A00003D0D7A1584602F001FB584609B0BDE834
:1049B000F08F002E57D0B56801213046FFF7BAF8C6
:1049C00004460CB90020F1E75B202070B068401C61
:1049D000B0600598D0F808802EE03346524606991C
:1049E000491C404600F0D3F83046FFF7D7F8B060D6
:1049F000D8F80000F0B1BAF1000F01D0022000E0B9
:104A0000012003900399491C3046FFF793F80446B0
:104A10000CB90020CAE72C2004F8010BBAF1000FF2
:104A200002D0202004F8010B00202070B168039808
:104A30000844B060D8F80080B8F1000F02D00298A6
:104A40000028CAD002213046FFF774F804460CB99A
:104A50000020ABE75D2004F8010B002020703068D7
:104A600000EB050B91E04FEA8900A44909688847EB
:104A700007460FB9002099E74FEA8901384602F04E
:104A80000AFC0598D0F8088021E0002352460699D8
:104A9000491C404600F07BF8049029466D1C0498A0
:104AA00047F82100049870B1049802F0A3FA801C22
:104AB000BAF1000F01D0012100E000210144039868
:104AC0000844039001E001200290D8F80080B8F17A
:104AD000000F02D002980028D7D0029820B9874949
:104AE0000398096888478346BBF1000F01D1012074
:104AF0000290029890B1002508E057F8250020B1F7
:104B000057F825007C49096888476D1C4D45F4DB42
:104B10003846794909688847002047E75B208BF8C9
:104B200000000BF1010400202070002521E057F85F
:104B3000250002F05FFA019057F825102046019AEF
:104B400002F0CEFA01980444A9F10100A8420AD06B
:104B50002C2004F8010BBAF1000F02D0202004F839
:104B6000010B0020207057F8250063490968884729
:104B70006D1C4D45DBDB38465F49096888475D2081
:104B800004F8010B002004F8010B58460EE72DE94C
:104B9000F04104460F4690461D46002614B90020F9
:104BA000BDE8F081002D49D0207B072845D2DFE801
:104BB00000F0101C04282E343C0005212846FEF786
:104BC000B9FF064626B1AFF22071304602F0EEF989
:104BD00033E006212846FEF7ADFF064626B1AFF2C8
:104BE0003071304602F0E2F927E005212846FEF751
:104BF000A1FF064626B1AFF24071304602F0D6F969
:104C00001BE029462046FEF7D9FF064615E0294657
:104C10002046FFF7FFFA06460FE02B46424639468C
:104C20002046FFF793FE064607E02B4642463946EC
:104C30002046FFF77DFC064600BF37E0207B0728B3
:104C400033D2DFE800F00A1004161C222A00AFF26B
:104C5000A870FEF726FE064627E0AFF2AC70FEF71E
:104C600020FE064621E0AFF2B070FEF71AFE0646BF
:104C70001BE000212046FEF7A1FF064615E00021BB
:104C80002046FFF7C7FA06460FE0002342463946A2
:104C90002046FFF75BFE064607E000234246394602
:104CA0002046FFF745FC064600BF00BF304677E7C9
:104CB00010B504460023012219462046FFF767FF7E
:104CC00010BD10B5044600231A4619462046FFF7CA
:104CD0005EFF10BDFEB505460C4616462046074948
:104CE0000968884700900194002002906B46324684
:104CF0000021284606E0000064000020600000203B
:104D00005B5D0000FFF743FFFEBD01468A6800209F
:104D100001E0401C1268002AFBD1704702469068EF
:104D200001E0491E006808B10029FADC704770B53F
:104D300005460E46AC6800E024682CB13146206A76
:104D4000FEF789FD0028F7D1204670BD016048605C
:104D5000704770B50546FEF7D1FD04460CB900203A
:104D600070BD28222946204602F041FA0020206228
:104D7000E06840F48070E0600020606020602046C1
:104D8000EEE770B505460E46AC6806B970BD0CB9C5
:104D9000AE6009E000E0246814B120680028FAD170
:104DA00031462046FFF7D2FF00BFEFE770B5064659
:104DB0000D46144604B970BD206A18B1FE49206A38
:104DC000096888472846FEF76CFD20622146304678
:104DD000FFF7D7FF00BFEEE770B506460D46144655
:104DE00004B970BDA08900F4007028B9206A18B118
:104DF000F149206A096888472562E06840F400703C
:104E0000E06021463046FFF7BCFF00BFE9E770B520
:104E100005460C462046FFF79CFF064631462846CD
:104E2000FFF7AFFF70BD2DE9F04105460E46144671
:104E30002046FFF78EFF07463A4631462846FFF7E1
:104E4000B5FFBDE8F08110B502460B46916801E060
:104E500009685B1E09B1002BFADC09B9002010BDFE
:104E6000486810B1D1E900042060086810B1D1E9A8
:104E7000004060609068884201D10868906000201E
:104E8000086048600846EAE770B504460D462946C2
:104E90002046FFF7D8FF0646FEF73DFD70BD2DE921
:104EA000F04105460F460026AC6801E0761C2468F8
:104EB0002CB13946206AFEF7CEFC0028F6D12CB181
:104EC00031462846FFF7BFFFBDE8F0810020FBE731
:104ED00070B504460D4629462046FFF7E0FF06461A
:104EE000FEF719FD70BD2DE9F04106460F46144648
:104EF000B56801E02D687F1E0DB1002FFADC2DB9D9
:104F000021463046FFF73DFFBDE8F0812560686827
:104F100060606C60B068A84201D1B46001E0606874
:104F2000046000BFF0E72DE9F04106460F46144645
:104F3000B56801E02D687F1E0DB1002FFADC0DB9B8
:104F4000BDE8F0812868206068686060206808B16A
:104F500020684460B068A84201D1B46001E0606894
:104F600004600020686028602846FEF7D4FC00BF7B
:104F7000E6E72DE9F04105460E4617464FF00008DA
:104F8000AC6802E008F1010824682CB13146206ABF
:104F9000FEF761FC0028F5D144B13046FEF781FCF4
:104FA00038623A4641462846FFF7BDFFBDE8F0812A
:104FB00010B5FEF7A3FC04460CB10220E0602046C9
:104FC00010BD10B5FEF79AFC04460CB10120E0605C
:104FD000204610BD10B5FEF791FC04460CB1002030
:104FE000E060204610BD70B50546FEF787FC04461C
:104FF00024B10DB1012000E00020E060204670BD2A
:1050000070B505460E46FEF779FC044644B1032010
:10501000E060C4E906562846314604F01DFC606194
:10502000204670BD70B50546FEF768FC04462CB1FD
:105030000420E0602846FEF734FC2061204670BD65
:1050400010B5FEF75BFC04460CB10520E06020467D
:1050500010BD10B5FEF752FC04460CB10620E0600E
:10506000204610BD2DE9F05F81468A460025AB46FB
:10507000FFF7E6FF0646002410E059F8240004F08C
:105080001AFC0746FFF7BCFF05460CB9B56003E004
:1050900029465846FFF75AFEAB46641C0EB15445EC
:1050A000EBDB3046BDE8F09F2DE9F05F81468A4694
:1050B0000025AB46FFF7C4FF0646002410E059F870
:1050C000240004F05BFF0746FFF79AFF05460CB982
:1050D000B56003E029465846FFF738FEAB46641C2E
:1050E0000EB15445EBDB3046BDE8F09F2DE9F047AB
:1050F000074688460025A946FFF7A2FF064600247A
:1051000010E007EBC400D0E900211046FFF778FF5C
:1051100005460CB9B56003E029464846FFF716FE80
:10512000A946641C0EB14445EBDB3046BDE8F08770
:105130002DE9F047074688460025A946FFF780FF7E
:10514000064600240DE057F82400FFF76BFF0546E4
:105150000CB9B56003E029464846FFF7F7FDA946BC
:10516000641C0EB14445EEDB3046BDE8F0872DE906
:10517000F047054689464FF0000815B90020BDE804
:10518000F087FEF7BBFB04460CB90020F7E7E868A0
:1051900020F48070E06068696061D5E90601C4E9C7
:1051A0000601286970B12869FEF77BFB2061206940
:1051B00040B9204602E0000064000020FEF7ABFB8F
:1051C0000020DCE7286A50B1286AFEF76AFB2062FB
:1051D000206A20B92046FEF79EFB0020CFE7B9F1F8
:1051E000000F01D12046CAE7AF6816E0012138461A
:1051F000FFF7BDFF064626B92046FEF78CFB0020D0
:10520000BDE7B8F1000F05D0C8F80060C6F804800B
:10521000B04601E0A660B0463F68002FE6D12046C8
:10522000ADE7014655E00278202A01D1401C50E04C
:105230000278092A01D1401C4BE002780D2A01D1E5
:10524000401C46E002780A2A01D1401C41E0027865
:105250002F2A0BD142782F2A08D100E0401C027877
:10526000002A36D002780A2A33D0F7E702782F2AAC
:105270000ED142782A2A0BD100E0401C02782AB1D4
:1052800002782A2AF9D142782F2AF6D1801C20E010
:105290000278222A19D110F8012B01F8012B0AE01B
:1052A00002785C2A03D110F8012B01F8012B10F8C9
:1052B000012B01F8012B027812B10278222AEFD1DA
:1052C00010F8012B01F8012B03E010F8012B01F875
:1052D000012B0278002AA6D10A707047704702B9E4
:1052E0000022704710B5102001F014FC04464FF462
:1052F000807001F00FFC206000206060A0604FF41F
:105300008070E060204610BD70B5044620680568D6
:10531000284601F02EFC206801F02BFC00202060C4
:1053200070BD2DE9F04104460E46E5680027B846F9
:1053300005E06D00781C0746202800DD03E060686A
:10534000281AB042F5D300BF202F03DD4FF0FF3005
:10535000BDE8F081E068A8420ED2284601F0DAFBF1
:1053600080464046D4E9001201F0BAFE206801F000
:1053700000FCC4F80080E5600020E9E70246906880
:10538000401C5368984202D94FF0FF307047936831
:105390001068C05C08709068401C90600020F5E7C1
:1053A00070B504460E461546A068284461688842D8
:1053B00002D94FF0FF3070BD284601F0ABFB3060E2
:1053C000A3682268D1182A46306801F089FEA068D7
:1053D0002844A0600020EEE730B502469068801CAB
:1053E0005568A84202D94FF0FF3030BD956810686B
:1053F000435D9068401C906095681068445D9068BB
:10540000401C906004EB032008800020EDE730B5DD
:105410000246002400239068001D5568A84201D967
:10542000581E30BD07E095681068405D40EA0323D0
:105430009068401C90602046641C0428F3DB0B60DD
:105440000020EEE7F8B504460D4600200090002647
:1054500069462046FFF7C0FF06460EB13046F8BD4C
:10546000BDF80010A06808446168884202D94FF076
:10547000FF30F4E7BDF80010481C01F04BFB28603A
:10548000BDF80010491C286801F0E3FEA3682268FB
:10549000D118BDF80020286801F024FFBDF80010E5
:1054A000A0680844A0600020D9E72DE9F8418046B3
:1054B0000C460126002700200090206000BF6946AE
:1054C0004046FFF75BFF054615B12846BDE8F88169
:1054D0009DF8001001F07F01206801FB06002060AC
:1054E000F6017F1C042F02D94FF0FF30EEE79DF844
:1054F000000000F080000028E1D100BFE6E770B5B1
:1055000004460D46A16809B9012100E000210846C2
:10551000FFF7E4FE01212046FFF703FF10B14FF033
:10552000FF3070BDD4E9000145546068401C6060E4
:105530000020F6E770B504460E461546A16809B985
:10554000012100E000210846FFF7C8FE2946204659
:10555000FFF7E7FE10B14FF0FF3070BDD4E9001245
:1055600088182A46314601F0BBFD60682844606017
:105570000020F2E770B505460C46A96809B901217B
:1055800000E000210846FFF7A9FE210A2846FFF7A0
:10559000B6FF20B9E1B22846FFF7B1FF08B10120FC
:1055A00070BD0020FCE770B505460C46A96809B936
:1055B000012100E000210846FFF790FE210E284659
:1055C000FFF79DFF80B9C4F307412846FFF797FF17
:1055D00050B9C4F307212846FFF791FF20B9E1B283
:1055E0002846FFF78CFF08B1012070BD0020FCE7C2
:1055F00070B504460D460026A16809B9012100E0F6
:1056000000210846FFF76AFE284601F0F3FC86B247
:1056100031462046FFF7AEFF28B9324629462046DC
:10562000FFF788FF08B1012070BD0020FCE770B5CE
:1056300002460C4621460023002596680EB9012635
:1056400000E000263046FFF749FE00BF01F07F056D
:10565000C90909B145F080055668701C5060106892
:1056600085555B1C09B1052BF0DB052B01D001260C
:1056700000E000263046FFF731FE002070BD2DE926
:10568000F04104460D46FFF72DFE06461021304638
:10569000FFF735FF204601F0ADFC00F10B0828466E
:1056A00001F0A8FC801C08EB000739463046FFF7E4
:1056B000BEFFFEA13046FFF79BFF01213046FFF7FA
:1056C0001EFF40213046FFF71AFF80213046FFF7CA
:1056D00051FF21463046FFF78BFF29463046FFF742
:1056E00087FF3046BDE8F0812DE9F04104460D46C4
:1056F0000026FFF7F7FD064610213046FFF7FFFEB4
:10570000204601F077FC00F10D08284601F072FCFC
:10571000801C08EB000739463046FFF788FFE3A1FD
:105720003046FFF765FF01213046FFF7E8FEC02154
:105730003046FFF7E4FE80213046FFF71BFF0021D3
:105740003046FFF7DCFE00213046FFF7D8FE214649
:105750003046FFF74DFF29463046FFF749FF3046F8
:10576000BDE8F0812DE9F04104460E4615460027BC
:10577000FFF7B8FD074630213846FFF7C0FE204648
:1057800001F038FC801C00EB050841463846FFF765
:105790004EFF21463846FFF72BFF2A463146384652
:1057A000FFF7C8FE3846BDE8F0812DE9F047044612
:1057B0000D4616464FF00009CA460027B846FFF7C7
:1057C00091FD81462846FFF773FA0746384601F0F7
:1057D00011FC804680214846FFF791FEA4B1204687
:1057E00001F008FC001D08F1020100EB010A51461E
:1057F0004846FFF71CFF80214846FFF780FE214600
:105800004846FFF7F5FE09E008F1040A514648460C
:10581000FFF70DFF00214846FFF771FEF1B2484641
:10582000FFF76DFE39464846FFF7E2FE384601F0C5
:10583000A0F94846BDE8F0872DE9FF4F9FB00C4620
:1058400015461E462C9F4FF00008C146C246C3466F
:1058500000201D90642104A801F01DFD002003908C
:10586000FFF7F7FB804647B13846FFF7DBFB024600
:105870008FA102904046FFF799FAFFF7E1FB8146BE
:10588000FFF7E7FB82462046FFF7CCFB02468AA1E2
:1058900002905046FFF78AFAFFF7D2FB8346FFF7E4
:1058A000D8FB1D903246642104A8FFF718FD04A818
:1058B000FFF7B8FB024681A102901D98FFF776FA28
:1058C000284603F0F8FFCDE90001FFF799FB0246F7
:1058D0007BA102901D98FFF769FA58461D99FFF7C2
:1058E00050FA5A4678A15046FFF760FA51464846AA
:1058F000FFF747FA4A4677A14046FFF757FA0122D9
:1059000041461F98FFF751FF03904046FEF703F80A
:10591000039823B0BDE8F08F2DE9FF5F9CB00C46E3
:10592000174698462B9D0026B146B246B346002046
:105930001B90642102A801F0AEFC00200190FFF74B
:1059400088FB064645B12846FFF76CFB024658A186
:1059500000903046FFF72AFAFFF772FB8146FFF707
:1059600078FB82462046FFF75DFB024652A100907D
:105970005046FFF71BFAFFF763FB8346FFF769FB0F
:105980001B90642102A82A9AFFF7A9FC02A8FFF73E
:1059900049FB024649A100901B98FFF707FA3846D9
:1059A0004146FFF72DFB024645A100901B98FFF7EB
:1059B000FDF958461B99FFF7E4F95A4642A15046B3
:1059C000FFF7F4F951464846FFF7DBF94A4641A193
:1059D0003046FFF7EBF9012231461C98FFF7E5FE50
:1059E00001903046FDF797FF019820B0BDE8F09F89
:1059F0002DE9FF4F9DB00C4615461E462A9F4FF0DD
:105A00000008C146C246C34600201C90642103A87A
:105A100001F041FC00200290FFF71BFB804647B1DC
:105A20003846FFF7FFFA024621A101904046FFF7F2
:105A3000BDF9FFF705FB8146FFF70BFB82462046C9
:105A4000FFF7F0FA02461CA101905046FFF7AEF9AD
:105A5000FFF7F6FA8346FFF7FCFA1C903246642102
:105A600003A8FFF73CFC03A8FFF7DCFA024613A1EA
:105A700001901C98FFF79AF92846FFF7D3FA0246DF
:105A80000FA101901C98FFF791F958461C99FFF758
:105A900078F95A460CA15046FFF788F95146484616
:105AA000FFF76FF94A460BA1404619E04544500004
:105AB000746F6B656E000000696400006174000023
:105AC00076616C756500000064617461706F696E69
:105AD000747300006461746173747265616D730046
