:020000040800F2
:1000000010080020F5060008E5020008E7020008D5
:10001000EB020008EF020008F302000800000000F5
:10002000000000000000000000000000F7020008CF
:10003000F902000800000000FB020008FD020008B1
:100040000F0700080F0700080F0700080F07000838
:100050000F0700080F0700080F0700080F07000828
:100060000F0700080F0700080F0700080F07000818
:100070000F0700080F0700080F0700080F07000808
:100080000F0700080F0700080F0700080F070008F8
:100090000F0700080F0700080F0700080F070008E8
:1000A0000F0700080F0700080F0700080F070008D8
:1000B0000F0700080F0700080F0700080F070008C8
:1000C0000F0700080F0700080F0700080F070008B8
:1000D0000F0700086B060008511A00080F070008F8
:1000E0000F0700080F0700080F07000800F002F8CC
:1000F00000F090F80AA090E8000C82448344AAF132
:100100000107DA4501D100F085F8AFF2090EBAE82F
:100110000F0013F0010F18BFFB1A43F0010318473B
:10012000043E0000243E0000103A24BF78C878C185
:10013000FAD8520724BF30C830C144BF04680C60ED
:10014000704700000023002400250026103A28BF35
:1001500078C1FBD8520728BF30C148BF0B60704739
:100160006E2902F05D82702902F0C583662903F0D2
:100170006686652903F06386672903F06086612936
:10018000AFF3008003681B0A28BF41F08001692992
:1001900002F00C82642902F00982752902F00682BD
:1001A0006F2902F05383782902F09183E92902F044
:1001B000EF82E42902F0EC82F52902F0E982EF29CE
:1001C00002F05083F82902F090830368DB0928BF0E
:1001D00041F08001632902F05E82732902F063829C
:1001E000E32902F04686F32902F04B86002070478F
:1001F0001FB502F09BFE04000020002103F07CFBF1
:10020000401C60600020002103F060FBE0601FBD27
:1002100010B510BD02F05DFE1146FFF7E9FF00F0DA
:1002200009F802F033FF03B4FFF7F2FF03BC00F05C
:10023000C1F9000000F054F901F043FF4FF4E13040
:1002400000F0C7F94FF4E13001F026FC01F0CAFDDF
:1002500001F0E8F902E014A002F052F801F080FA8F
:100260000028F8D114A002F04BF801F036FB19E099
:10027000164801F0F2FD154801F059FF134802F04D
:1002800012F8124801F0FAFA202804D10F4910A000
:1002900002F036F802E011A002F032F84FF4FA70E2
:1002A00000F05BF9E4E7000032344C303120495370
:1002B000204552524F52000032344C3031204953C5
:1002C00020535543434553530000000000000020D5
:1002D00054582049532025730D0A00004552524FAF
:1002E00052000000704700BFFEE700BFFEE700BFFE
:1002F000FEE700BFFEE77047704770477047000099
:100300000CB50020019000906C48006840F48030EB
:100310006A49086000BF6948006800F40030009036
:100320000198401C0190009818B90198B0F5A06F91
:10033000F1D16248006800F4003010B10120009053
:1003400001E0002000900098012843D15C4800683B
:1003500040F010005A4908600846006820F0030089
:1003600008600846006840F0020008605348406892
:10037000524948600846406848600846406840F472
:10038000806048600846406820F47C104860084659
:10039000406840F4E81048600846006840F080700B
:1003A000086000BF4548006800F000700028F9D0E0
:1003B0004248406820F003004049486008464068D1
:1003C00040F00200486000BF3C48406800F00C006C
:1003D0000828F9D10CBD10B5FFF792FF10BD10B57C
:1003E0003648006840F0010034490860084640681B
:1003F000344908403149486008460068324908409D
:100400002E4908600846006820F4802008600846ED
:10041000406820F4FE0048604FF41F008860FFF73A
:10042000DAFF4FF000602949086010BD10B50021C7
:1004300000200022214B5B6803F00C0121B104294C
:1004400006D0082928D107E0214B224C236027E061
:100450001F4B204C236023E0184B5B6803F47010A3
:10046000164B5B6803F48032022303EB904022B901
:10047000194B4343174C23600DE0104B5B6803F4AA
:10048000003323B1144B4343124C236003E0104B61
:100490004343104C236003E00D4B0E4C236000BF20
:1004A00000BF064B5B68C3F303130C4CE15C094BC4
:1004B0001B68CB40074C236010BD000000100240B9
:1004C000002002400000FFF8FFFFF6FE08ED00E00C
:1004D00000127A001000002000093D0014000020E6
:1004E00010B56FF0040000F074F92E4800682E4932
:1004F000B0FBF1F02D4908700846007800EB400190
:10050000C1EBC0104FF6FF7101EAC0002849088016
:1005100010BD0146254A12784A434FF0E0235A6144
:1005200000229A611A46126942F001021A6100BF64
:100530004FF0E022106900F001021AB100F480329D
:10054000002AF5D04FF0E022126922F001024FF0AC
:10055000E0231A6100229A6170470146144A12880A
:100560004A434FF0E0235A6100229A611A46126909
:1005700042F001021A6100BF4FF0E022106900F062
:1005800001021AB100F48032002AF5D04FF0E022C7
:10059000126922F001024FF0E0231A6100229A61F1
:1005A000704700001000002000127A002400002094
:1005B00026000020014600BF704700BF494A12884C
:1005C00002F04002002AF9D0C2B2464B1B1D1A802D
:1005D000704710B586B00446012144F2040000F0D3
:1005E00033FC4FF40070ADF8140003208DF81600B2
:1005F00018208DF8170005A93B4800F069F94FF461
:100600008060ADF8140004208DF8170005A9364865
:1006100000F05EF925208DF8000003208DF8010020
:100620008DF8020001208DF80300684600F087F87D
:1006300001940020ADF80800ADF80A00ADF80C00F8
:10064000ADF810000C20ADF80E0001A9254800F00F
:1006500028FE012240F22551224800F0BAFE012175
:10066000204800F0AAFE06B010BD10B540F225519A
:100670001C4800F093FF10B31A4800F00FFFC4B2FB
:100680001A48008800F40040C8B91848008800F4EF
:10069000804060B10A2C03D000201449088020E07B
:1006A0001248008840F400401049088019E00D2CE1
:1006B00006D10E48008840F480400C49088010E0C4
:1006C0000A480088C0F30D0009490C540748008807
:1006D000401C0649088008460088C72801DD002024
:1006E000088010BD00380140000801402C000020A7
:1006F000640000200948804709480047FEE7FEE7FC
:10070000FEE7FEE7FEE7FEE7FEE7FEE7FEE7FEE7C1
:1007100004480549054A064B70470000DF030008FE
:10072000ED00000810020020100800201004002036
:100730001004002031490143314A1160704770B5FF
:10074000002100230F22C47804B32D4C246804F444
:10075000E064C4F5E064210AC1F10403CA404478AE
:1007600004FA03F18478144021430901254C0678EA
:10077000A155047804F01F050124AC4005786D11E3
:10078000AD0005F1E025C5F8004109E0047804F06A
:100790001F050124AC401C4D0678761145F8264013
:1007A00070BD1A4A0A400243154B1B1F1A6070475E
:1007B00039B1134A121D12680243114B1B1D1A60F6
:1007C00006E00F4A121D126882430D4B1B1D1A6072
:1007D0007047042808D14FF0E021096941F0040175
:1007E0004FF0E022116107E04FF0E021096921F0AC
:1007F00004014FF0E0221161704700000000FA058B
:100800000CED00E000E400E080E100E080FFFF1F6D
:1008100010B50446CC48844208D10121042000F0E0
:100820002DFB0021042000F029FB46E0C74884424C
:1008300008D10121082000F021FB0021082000F050
:100840001DFB3AE0C248844208D10121102000F08B
:1008500015FB0021102000F011FB2EE0BD48844262
:1008600008D10121202000F009FB0021202000F008
:1008700005FB22E0B848844208D10121402000F065
:10088000FDFA0021402000F0F9FA16E0B348844256
:1008900008D10121802000F0F1FA0021802000F031
:1008A000EDFA0AE0AE48844207D10121801500F03C
:1008B000E5FA0021A01500F0E1FA10BD10B5012104
:1008C000084600F0DBFA0021012000F0D7FA10BD45
:1008D0002DE9F041024600250026002000230024D7
:1008E000002791F803C00CF00F0591F803C00CF03D
:1008F000100CBCF1000F03D091F802C04CEA0505C2
:1009000091F800C0BCF1000F31D0146800202BE03A
:100910004FF0010C0CFA00F3B1F800C00CEA03062A
:100920009E4220D183004FF00F0C0CFA03F7BC431A
:1009300005FA03FC4CEA040491F803C0BCF1280F4B
:1009400006D14FF0010C0CFA00FCC2F814C00AE00A
:1009500091F803C0BCF1480F05D14FF0010C0CFA1F
:1009600000FCC2F810C0401C0828D1D31460B1F8B4
:1009700000C0BCF1FF0F34DD546800202EE000F110
:10098000080C4FF0010808FA0CF3B1F800C00CEAAB
:1009900003069E4221D183004FF00F0C0CFA03F79F
:1009A000BC4305FA03FC4CEA040491F803C0BCF113
:1009B000280F05D100F1080C08FA0CF8C2F81480D1
:1009C00091F803C0BCF1480F07D100F1080C4FF0BB
:1009D000010808FA0CF8C2F81080401C0828CED391
:1009E0005460BDE8F0814FF6FF71018002218170F3
:1009F0000421C17070470246002093680B400BB180
:100A0000012000E0002070470146886880B27047EE
:100A100002460020D3680B400BB1012000E000200B
:100A200070470146C86880B27047016170474161F4
:100A300070470AB1016100E041617047C1607047D1
:100A40004FF480320A4382618161826182698269E6
:100A5000704702460020434B18684FF680731840D9
:100A600040EA021008433F4B186070473E49C86196
:100A70007047F0B50A46002300240021002500F04D
:100A80000046B6F1004F02D1364EF16901E0354E15
:100A90007168C0F3034583B200F44016B6F5401FF9
:100AA00008D121F070612F4E766826F070662D4FC8
:100AB0007E6012E000F48016B6F5801F06D1032692
:100AC00006FA05F4A14341F0706106E0460D3601D7
:100AD00003FA06F6B14341F0706122B1460D3601CA
:100AE00003FA06F6314300F00046B6F1004F02D19A
:100AF0001C4EF16101E01B4E7160F0BD30B500226B
:100B00008B071C0F0F2303FA04F2164B08338C10CB
:100B100053F824309343134C08348D1044F8253097
:100B200023468C1053F824308C07240F00FA04F469
:100B300023430C4C08348D1044F8253030BD0A494D
:100B4000DC3108607047000000080140000C0140E3
:100B5000001001400014014000180140001C014039
:100B6000002001400000014000002042DF480068F2
:100B700040F00100DD49086008464068DC49084053
:100B8000DA49486008460068DA490840D7490860F1
:100B90000846006820F4802008600846406820F479
:100BA000FE0048604FF41F0088607047CF49096815
:100BB00021F48031CD4A11601146096821F4802169
:100BC0001160B0F5803F03D0B0F5802F0ED106E064
:100BD000C649096841F48031C44A116007E0C3493D
:100BE000096841F4A021C14A116000E000BF00BFC4
:100BF000704710B501460022002300204A11012A47
:100C000002D1BA4C236806E0022A02D1B74C236A0B
:100C100001E0B64C636A01F01F02012494401C40BD
:100C20000CB1012000E0002010BD38B5002000907C
:100C30000024002500BF3120FFF7DBFF05460098A8
:100C4000401C00900098B0F5A06F01D0002DF2D0AC
:100C50003120FFF7CEFF08B1012400E00024204638
:100C600038BD01460020A14A106820F0F80040EA93
:100C7000C10010607047A04908607047024600201C
:100C80009A4B586820F47C1042EA01031843974BB2
:100C90005860704798490866704701460020934A9B
:100CA000506820F003000843506070478F48406848
:100CB00000F00C007047014600208C4A506820F07C
:100CC000F00008435060704701460020874A506892
:100CD00020F4E06008435060704701460020834ADA
:100CE000506820F4605040EAC1005060704729B15C
:100CF0007E4A527A02437D4B5A7204E07B4A527A12
:100D000082437A4B5A7270477B49D83108607047EA
:100D100001460020754A506820F440400843506066
:100D200070470021714A20321170704A82F82010F9
:100D3000012802D004280AD104E001216B4A2032A4
:100D4000117005E00521694A2032117000E000BFF2
:100D500000BF70476949086070476449096A0143E8
:100D6000624A11627047654944390860704730B57E
:100D700000210022002400235C4D6D6805F00C0169
:100D800021B1042905D0082923D105E05C4D056077
:100D900022E05B4D05601FE0544D6D6805F4701254
:100DA000524D6D6805F48034022505EB92421CB962
:100DB000544D554305600BE04C4D6D6805F400350E
:100DC0001DB1504D5543056002E04D4D5543056042
:100DD00002E04B4D056000BF00BF444D6D6805F05B
:100DE000F0010909484D6B5C0568DD4045603F4DE9
:100DF0006D6805F4E061090A434D6B5C4568DD40B0
:100E000085603A4D6D6805F46051C90A3E4D6B5CD2
:100E10004568DD40C560354D6D6805F44041890B7E
:100E20003A4D6B5CC568B5FBF3F5056130BD29B182
:100E30002E4A526902432D4B5A6104E02B4A5269F3
:100E400082432A4B5A61704729B1284A926902436A
:100E5000264B9A6104E0254A92698243234B9A61AA
:100E6000704729B1214AD2690243204BDA6104E07C
:100E70001E4AD26982431D4BDA61704729B11B4A71
:100E8000D2680243194BDA6004E0184AD268824300
:100E9000164BDA60704729B1144A12690243134BAA
:100EA0001A6104E0114A12698243104B1A617047BB
:100EB00012494039086070470F49C86470470B49B0
:100EC000C87170470948406A40F08070074948621D
:100ED000704701460020054A92680A400AB1012085
:100EE00000E00020704701498872704700100240FE
:100EF0000000FFF8FFFFF6FE00004242800442427D
:100F000000127A0000093D002E0000203E00002063
:100F100010B50446BE48844208D101218014FFF771
:100F2000ADFF0021A014FFF7A9FF16E0B9488442E5
:100F300008D101210014FFF7AEFF00212014FFF7B4
:100F4000AAFF0AE0B448844207D10121C013FFF789
:100F5000A2FF0021E013FFF79EFF10BD10B5002295
:100F6000028802F441520B884C8823438C88234327
:100F7000CC8823430C8923434C8923438C89234306
:100F8000CC8923431A430280838B4FF2FF742340A2
:100F900083830B8A038210BD2DE9F04F85B005468F
:100FA0000C464FF0000902274FF000084FF0010BEC
:100FB0000026B246A88B4FF240010840A8830220C9
:100FC0002884B5F81C90A068022801D100BF38E041
:100FD000A08810B94FF0010B01E04FF0020B8D48D3
:100FE000854200D100E000BF6846FFF7C0FEDDF893
:100FF00000A0E088B0F5007F0AD14FEA1A2000EB8C
:1010000080004000A168B0FBF1F0401D86B20BE00B
:101010004FEA4B10BAFBF0F000EB80004000A168F3
:10102000B0FBF1F0401D86B20A20B6FBF0F606F0E8
:101030000108A6EB0800C0F34F074FF6FF7000EA67
:101040000828022F01DBFF2F02DD02274FF00008E6
:10105000E08840EA080038432884A088A189084332
:10106000618808432188084340F4006040EA090988
:10107000A5F81C9005B0BDE8F08F002101804180EB
:101080008180C180018141818181C18107210182EB
:1010900070470021018041808180C18002218160F0
:1010A00000218181704721B1028842F04002028014
:1010B00004E002884FF6BF731A400280704721B1E6
:1010C000828B42F48062828304E0828B4FF6FF338E
:1010D0001A408283704730B5002400230C1101258B
:1010E000A540ABB21AB185881D43858002E0858892
:1010F0009D43858030BD1AB183880B43838002E015
:1011000083888B438380704781817047014688893B
:1011100070474FF6FF62914204D0028842F4807219
:10112000028004E002884FF6FF631A400280704795
:1011300021B1828842F00402828004E082884FF666
:10114000FB731A408280704702884FF2FF731A4087
:10115000028002880A4302807047018841F480516E
:101160000180704721B1028842F40052028004E0FD
:1011700002884DF6FF731A40028070470246002035
:10118000012901D0108B00E0908A70470146088A3F
:101190007047B1F5804F04D1028842F4804202804A
:1011A00004E002884BF6FF731A4002807047024643
:1011B000002013890B400BB1012000E00020704794
:1011C000CA4302817047F0B5024600200024002384
:1011D000002501F00F070126BE40B4B20B11012615
:1011E0009E40B3B2968806EA03051689264016B1DA
:1011F0000DB1012000E00020F0BD10B5002201F08B
:101200000F040123A3409AB2D343038110BD000011
:101210000030014000380040003C004010B504465A
:10122000FB48844209D101218803FFF727FE0021F2
:101230004FF48040FFF722FE32E0F648844209D1A5
:1012400001214804FFF727FE00214FF40030FFF78B
:1012500022FE25E0F048844209D101218804FFF7ED
:101260001AFE00214FF48020FFF715FE18E0EB482E
:10127000844209D10121C804FFF70DFE00214FF47B
:101280000020FFF708FE0BE0E548844208D1012169
:101290000805FFF700FE00214FF48010FFF7FBFD6B
:1012A00010BD2DE9F04786B005460E460024A24643
:1012B00000BFA1460027B08900B100BF2F462C8A8D
:1012C0004CF6FF700440F08804432C82AC894EF643
:1012D000F3100440B08831890843718908430443FE
:1012E000AC81AC8A4FF6FF400440B0890443AC8225
:1012F00001A8FFF73CFDC648874202D1DDF810A0E7
:1013000001E0DDF80CA0A88900F4004040B10AEB30
:10131000CA0000EB0A1031684900B0FBF1F807E0A1
:101320000AEBCA0000EB0A1031688900B0FBF1F843
:101330006420B8FBF0F004012009642101FB10894E
:10134000A88900F4004040B1322000EBC900B0FB96
:10135000F1F000F00700044308E0322000EB091030
:101360006421B0FBF1F000F00F0004432C8106B0C3
:10137000BDE8F0874FF41651016000218180C180E3
:1013800001810C21418100218181704710B5024605
:101390000020108A4FF2FF0318400B884C8823432B
:1013A0008C882343CC8823431843108210BD00212E
:1013B000018041808180C180704721B1828942F4DF
:1013C0000052828104E082894DF6FF731A408281C7
:1013D0007047F0B50346002400260025002040F6A3
:1013E0006A17B94200D100BF1846C1F3421401F098
:1013F0001F06012707FA06F5012C01D10C3004E085
:10140000022C01D1103000E014301AB107682F43CC
:10141000076002E00768AF430760F0BD1AB1838A36
:101420000B43838202E0838A8B4383827047028A64
:101430004FF6F0731A400282028A0A430282704712
:1014400082894FF2FF731A40828182890A43828126
:10145000704721B1828942F00202828104E08289D0
:101460004FF6FD731A4082817047028A4FF6DF7390
:101470001A400282028A0A430282704721B1028A1C
:1014800042F48042028204E0028A4BF6FF731A4063
:1014900002827047C1F30802828070470146888843
:1014A000C0F308007047818941F0010181817047D4
:1014B000028BD2B20283028B42EA0122028370477E
:1014C000028B02F47F420283028B0A43028370473D
:1014D00021B1828A42F02002828204E0828A4FF6A1
:1014E000DF731A408282704721B1828A42F0100273
:1014F000828204E0828A4FF6EF731A40828270473C
:1015000021B1828A42F00802828204E0828A4FF688
:10151000F7731A408282704721B1828942F40042F7
:10152000828103E08289C2F30E028281704721B179
:10153000828A42F40062828204E0828A4FF2FF7360
:101540001A4082827047828A4FF6FB731A40828269
:10155000828A0A438282704721B1828A42F0020263
:10156000828204E0828A4FF6FD731A4082827047BD
:1015700002460020B1F5007F00D100BF13880B4068
:101580000BB1012000E00020704701F40072B2F5B9
:10159000007F00D100BFCA430280704770B5024689
:1015A000002400230025002040F66A16B14200D135
:1015B00000BFC1F3421501F01F03012606FA03F331
:1015C000012D02D19689334006E0022D02D1168A00
:1015D000334001E0968A33400C12012606FA04F4E7
:1015E0001688344013B10CB1012000E0002070BD1A
:1015F00010B50022002340F66A14A14200D100BFBA
:101600000A1201249440A3B2DC43048010BD000000
:10161000003801400044004000480040004C0040B9
:101620000050004000B587B001210820FFF70CFCF6
:101630004FF48050ADF8180010208DF81B000320E7
:101640008DF81A0006A9B848FFF742F94FF4805107
:10165000B548FFF7EAF94FF4C070ADF8180006A9D5
:10166000B148FFF735F94020ADF8180028208DF873
:101670001B0006A9AC48FFF72BF94FF4E071AA480C
:10168000FFF7D5F900F087F90021A848FFF70BFD17
:101690000020ADF804004FF48270ADF80600002081
:1016A000ADF80800ADF80A00ADF80C004FF400707A
:1016B000ADF80E001820ADF810000020ADF81200B3
:1016C0000720ADF8140001A99848FFF747FC012155
:1016D0009648FFF7E8FC00209549086001209549ED
:1016E000C1F89C0107B000BD2DE9F04107460D4649
:1016F000164600208E49091F0860384600F024F97C
:101700008046002405E0FF2000F01EF92855601CEB
:10171000C4B2B442F7DB01208549091F0860404686
:10172000BDE8F0812DE9F04107460C461546002042
:101730007F49091F0860384600F006F980460026F8
:1017400005E014F8010B00F0FFF8701CC6B2AE42C1
:10175000F7DB01207649091F08604046BDE8F081AB
:101760001CB575A103C9CDE90001082000F059F9A5
:10177000052269463020FFF7D5FF05226946102073
:10178000FFF7B2FF002406E01DF80400A52800D0F2
:1017900003E0601CC4B2052CF6DB00BF052C01D0B1
:1017A00001201CBD0020FCE770B505460C4600205A
:1017B0005F49091F0860284600F0C6F80646204623
:1017C00000F0C2F801205B49C1F89C01304670BDB1
:1017D00070B5044600205649091F0860204600F0F5
:1017E000B3F8FF2000F0B0F8054601205149C1F8D8
:1017F0009C01284670BD70B50446102000F011F918
:101800000720FFF7E5FF054629462720FFF7CCFF15
:1018100005F0400050B1202221466120FFF764FF0F
:10182000FF21E220FFF7C0FF002070BD0120FCE790
:1018300010B500203E490860052241492A20FFF7E3
:1018400071FF00212120FFF7AFFF01212220FFF7C8
:10185000ABFF28212520FFF7A7FF20213120FFF72C
:10186000A3FF0F212620FFF79FFF0F212020FFF766
:101870009BFF01202F49C1F8A00110BD70B505469E
:10188000102000F0CEF800202949086020222946C7
:10189000A020FFF747FF01202649C1F8A00100BFA3
:1018A0002348883800680028FAD10720FFF790FF06
:1018B000044621462720FFF777FF04F0100028B1E7
:1018C000FF21E120FFF770FF102070BD04F0200021
:1018D00008B12020F9E7FF20F7E710B500201449F0
:1018E0000860052217493020FFF71CFF0021212046
:1018F000FFF75AFF00212220FFF756FF0021242086
:10190000FFF752FF00212520FFF74EFF0F21262071
:10191000FFF74AFF0E212020FFF746FF012005496F
:10192000C1F8A00110BD0000000C014000380040CB
:10193000A081214200802142A5A5A5A5A500000007
:10194000473E0008423E000870B50546002405E009
:10195000601CC4B2C82C01DD002070BD02213A48D1
:10196000FFF725FC0028F3D029463748FFF7CCFBCA
:10197000002405E0601CC4B2C82C01DD0020ECE7A7
:1019800001213148FFF713FC0028F3D02E48FFF760
:10199000BDFBC0B2E1E700B587B001210820FFF729
:1019A00053FA01218803FFF75CFA4FF46040ADF869
:1019B000180018208DF81B0003208DF81A0006A9C6
:1019C0002248FEF785FF4FF460412048FFF72DF8CD
:1019D0000020ADF804004FF48270ADF8060000203E
:1019E000ADF808000220ADF80A000120ADF80C00A7
:1019F0004002ADF80E003820ADF810000020ADF820
:101A000012000720ADF8140001A90F48FFF7A6FA4D
:101A100001210D48FFF747FBFF20FFF795FF07B0B7
:101A200000BD10B50446084800884FF6C77108404D
:101A300005490880084600882043088001210248A3
:101A4000FFF731FB10BD000000380040000C0140E2
:101A500010B540F225514B48FFF7A0FDD8B14948D9
:101A6000FFF71CFDC4B24848008800F4004090B95C
:101A700045480068402808D2434801680068401C77
:101A8000414A10604148445405E03F48006840F432
:101A900000403D49086010BD10B586B004460121E4
:101AA0000420FFF7D1F901214804FFF7DAF935489E
:101AB000FFF7B4FB0420ADF8100003208DF81200EE
:101AC00018208DF8130004A93148FEF701FF082003
:101AD000ADF8100004208DF8130004A92C48FEF77F
:101AE000F7FE00940020ADF80400ADF80600ADF854
:101AF0000800ADF80C000C20ADF80A00694621483A
:101B0000FFF7CFFB01211F48FFF757FC012240F2EE
:101B100025511C48FFF75DFC26208DF8140002209B
:101B20008DF8150003208DF8160001208DF81700A0
:101B300005A8FEF704FE06B010BD0FB438B505A821
:101B400000901448009A049900F0C8FB002000900F
:101B5000104800F0CFFC85B200240DE000BF40210A
:101B60000848FFF705FD0028F9D00A48015D05483F
:101B7000FFF790FC601C84B2AC42EFDB38BC5DF830
:101B800014FB000000440040440000202C01002011
:101B9000000801406C01002042F21071B0FBF1F12D
:101BA000BB4A117042F21071B0FBF1F201FB12005E
:101BB0004FF47A71B0FBF1F1B64A11704FF47A71BB
:101BC000B0FBF1F201FB12006421B0FBF1F1B24A6B
:101BD00011706421B0FBF1F201FB12000A21B0FB8D
:101BE000F1F1AE4A11700A21B0FBF1F201FB1200D3
:101BF000AB4A1070704710B50120AA490860AA4985
:101C0000C1F890010520FEF784FC0020A54908607A
:101C10000520FEF77EFC0020A349C1F8900110BD0D
:101C200010B500209F49086001209F49C1F890012C
:101C30000520FEF76EFC01209A4908600520FEF79A
:101C400068FC10BD10B50446964804600120964912
:101C5000C1F890010520FEF75CFC00209149091FA6
:101C600008600520FEF755FC10BD10B501208D4918
:101C7000091F08600520FEF74CFC00F044F98A4873
:101C8000D0F814018949087000F01CF9002085493A
:101C9000091F08600520FEF73CFC8448007810BD51
:101CA00070B5044600251BE004F0800018B1012047
:101CB0007C49086002E000207A4908606006040E52
:101CC00001207849091F08600520FEF722FC00204A
:101CD0007549C1F890010520FEF71BFC681CC5B2D0
:101CE000082DE1DBFFF7C1FF70BD70B500240120B6
:101CF0006C49086000251AE06006040E012069495D
:101D0000091F08600520FEF704FC00F0FCF8664897
:101D1000D0F814012043C4B200F0D4F80020614987
:101D2000091F08600520FEF7F4FB681CC5B2082DEA
:101D3000E2DB204670BD10B50446FFF75CFF46208D
:101D4000FFF7AEFF2046FFF7ABFFFFF769FF10BDBF
:101D500010B5FFF750FF4720FFF7A2FF00240EE069
:101D6000FFF7C3FF52490855032C03D10120FFF7A9
:101D700069FF02E00020FFF765FF601CC4B2032C7E
:101D8000EEDBFFF74DFF0520FEF7E7FB10BD10B5BA
:101D90000120FFF7D0FF10BD3D4A1278454B1A7065
:101DA0003C4A12785A703C4A12789A703B4A127830
:101DB000DA703B4A12781A710A225A710621002001
:101DC0000DE03C4A125C3C4B1A8000BF3A4A121F9D
:101DD000128802F04002002AF8D0421CD0B2884299
:101DE000EFDB704710B500F06DF8FFF7D0FF4FF450
:101DF000A060FEF79FFC10BD2DE9F0470120FFF722
:101E00009AFF1020FFF797FFB420FEF7A6FBFFF71D
:101E10009FFF2748007829490860254840780968CD
:101E200000EB0120254908600846006801F0A4FF86
:101E3000814601F055FF07464FF03332204B01F049
:101E4000A3FD054601F06EFD0446204601F074FF37
:101E50000546FFF7A1FEBDE8F08710B50446FFF781
:101E6000CBFF6C2020710A4800783030607109483F
:101E700000783030A071084800783030E0710748B1
:101E8000007830302072064800783030607210BD23
:101E90005400002053000020520000205100002078
:101EA0005000002094012142000021425C000020EB
:101EB0004800002064000020043801405800002041
:101EC0003333F33F08B501210420FEF7BDFF102096
:101ED000ADF800008DF8030003208DF8020069467C
:101EE0001148FEF7F5FC10210F48FEF79EFD20205B
:101EF000ADF8000069460C48FEF7EAFC20210A48CC
:101F0000FEF793FD08BD08B501210420FEF79CFFF4
:101F10002020ADF8000048208DF8030069460248F3
:101F2000FEF7D6FC08BD00000008014010B5894846
:101F3000406820F47000874948600846406840F4D3
:101F40004010486000208449086040F2EE20FEF70F
:101F5000E0FA01208149C1F8B4010F20FEF7D9FA57
:101F600010BD10B500247B48406820F4700079490A
:101F700048600846406840F40000486004E0601C87
:101F8000C4B20120FEF7C5FA73488038006808B172
:101F9000C82CF4DBC82C01DB012010BD002404E0B8
:101FA000601CC4B20120FEF7B4FA6B4880380068A8
:101FB00008B9F02CF4DBF02C01DB0120EDE7002068
:101FC000EBE710B56348406820F470006149486051
:101FD0000846406840F44010486000205E490860B0
:101FE0000220FEF796FA01205C49C1F8B401594875
:101FF000406820F47000574948600846406840F443
:10200000000048600C20FEF784FA534880380068CE
:1020100008B1012400E000243220FEF77AFA2046BD
:1020200010BD70B50026012508E0FFF7CAFF044681
:10203000E00140EA6600C6B2681CC5B2082DF4DDB6
:10204000304670BD70B504464248406820F47000C8
:10205000404948600846406840F440104860012507
:1020600020E004F0010664106EB100203A490860D7
:102070000220FEF74EFA01203849C1F8B4013C2095
:10208000FEF747FA0CE00020334908603C20FEF7D9
:1020900040FA01203149C1F8B4010220FEF739FAB3
:1020A000681CC5B2082DDCDD70BD10B5FFF73EFF22
:1020B000FFF757FFCC20FFF7C5FF4420FFF7C2FF13
:1020C00010BD08B501211020FEF7BEFE4FF40050F0
:1020D000ADF8000010208DF8030003208DF80200F9
:1020E00069461C48FEF7F4FB4FF400511948FEF70F
:1020F0009CFCFFF71BFFFFF734FF08BD70B5FFF72F
:10210000D4FFFFF713FFFFF72CFFCC20FFF79AFF58
:10211000BE20FFF797FFFFF784FF0546FFF781FF1B
:1021200006463007040E44EA2514204670BD70B5FB
:102130000446FFF7E3FF05460A2095FBF0F0303038
:10214000A0700A2095FBF0F100FB11503030E070D8
:1021500070BD000000100140B40122420000224284
:1021600008B501210420FEF76FFE4020ADF8000005
:1021700010208DF8030003208DF8020069465448B2
:10218000FEF7A6FB08BD08B54020ADF8000004200E
:102190008DF8030003208DF8020069464C48FEF7D5
:1021A00097FB08BD10B540214948FEF724FC0446C2
:1021B0000CB9002010BD0120FCE710B50446012C2D
:1021C00004D140214248FEF730FC03E04021404862
:1021D000FEF72DFC10BD10B5044614B12046FEF7E5
:1021E000BCF910BD10B5044614B12046FEF791F9B4
:1021F00010BD70B5002400251BE06006040E00BF72
:10220000FFF7D0FF0028FBD00A20FFF7EBFF0A20E2
:10221000FFF7E8FF0A20FFF7E5FFFFF7C3FF30B144
:1022200044F0010400BFFFF7BDFF0028FBD1681C8C
:10223000C5B2082DE1DB204670BD10B5FFF790FF59
:102240000020FFF7BAFF1220FFF7C5FF0120FFF7BC
:10225000B4FF0A20FFF7C6FF0A20FFF7C3FF0120E3
:10226000FFF7ABFFFFF78FFFFFF79CFF58B900BFE9
:10227000FFF798FF0028FBD000BFFFF793FF00286F
:10228000FBD1012010BD0020FCE710B5FFF7D5FF02
:1022900040B1FFF7AEFF0F490870FFF761FF012063
:1022A000FFF78BFF10BD10B50446FFF7EEFF09489E
:1022B00000780A2190FBF1F03030E0720548007898
:1022C00090FBF1F201FB12003030207310BD0000D2
:1022D000000801405F000020704700001CB50C465C
:1022E000064B7B4469460090204600F0B2F9044654
:1022F0000020694600F0C0F920461CBD9303000091
:102300000FB4044910B503AA029800F0D1F910BC2B
:102310005DF814FB2800002070B50C460546012A24
:1023200005D02878800600D5EA69002302E0012361
:1023300005E05B1C934202D2E05C0028F9D1A86959
:10234000E618C01AA861286A18442862284600F0D6
:10235000F4F804E0D5E9012114F8010B9047B442E8
:10236000F8D3284600F0FFF870BD00002DE9F05FBB
:10237000894604464FF0000ADFF874B1FB44C0F808
:1023800020A02046E1688847002874D0252806D080
:10239000D4E901219047206A401C2062F1E7002621
:1023A0005F462046E16888472028054607DB312D37
:1023B00005D2781910F8200C08B10643F1E7B007F0
:1023C00001D526F00406C4F81CA00027C4F818A004
:1023D0002A2D09D0284601F072FA38B304EB870899
:1023E000303DC8F8185019E059F8041B204604EB9A
:1023F00087029161E1688847012F054618D1E0699D
:10240000002820DA26F020061DE0D8F8180000EB9E
:10241000800005EB40003038C8F818002046E1681D
:102420008847054601F04BFA0028EED1012F0AD06B
:102430002E2D08D12046E16888477F1C0546022FD3
:1024400046F02006C4DBA069002803DA404246F0CB
:102450000106A061F00701D026F010066C2D0BD00C
:10246000682D09D04C2D39D06A2D35D0742D35D03A
:102470007A2D33D016E038E0E1682F4620468847B1
:10248000B842054609D16C2F26D04FF48060E16830
:10249000064320468847054604E06C2F1AD04FF4C7
:1024A000807006430DB3A5F14100192802D82035EC
:1024B00046F400664A462946204626604E46FDF709
:1024C0004FFE80B101280BD0F61D26F0070000F169
:1024D000080956E74020E4E78020D8E70020D6E747
:1024E00006F104094DE7284652E7206ABDE8F09F4F
:1024F000CC1A000010B5431C02E010F8011B71B1AA
:102500008107FAD14FF0013202C88C1A8C4314EAC9
:10251000C211F9D0C01A0A0603D0C01E10BDC01ADD
:1025200010BD0A0401D0801E10BD0902FCD0401E5F
:1025300010BD704770477047704770B50446856995
:102540000068C10601D5302600E02026C00707D06C
:1025500070BDD4E9012130469047206A401C2062BA
:102560006D1EF6D570BD70B5044685690078C0074C
:1025700007D170BDD4E9012120209047206A401C7A
:1025800020626D1EF6D570BD09684A0501D540B2BE
:102590007047C905FCD500B2704709684A0501D5E6
:1025A000C0B27047C905FCD580B270472DE9F04133
:1025B0000646002410687529314615A510D0FFF78E
:1025C000E3FF002802DA404212A507E031688A07DB
:1025D00001D511A502E0490704D510A5012401E0A9
:1025E000FFF7DBFF00210A2306F1240707E0B0FB19
:1025F000F3F203FB1200303078541046491C0028D7
:10260000F5D123462A463046BDE8F04100F0C3B973
:10261000000000002D0000002B0000002000000042
:1026200011680268006A530501D508700AE0D305F5
:1026300001D5088006E0130603D5C217C1E90002E0
:1026400000E008600120704701694A1C02610878B7
:10265000704700B58FB0CDE90131002105910549E2
:102660007944CDE9031011466846FFF77FFE0FB0AD
:1026700000BD0000E5FFFFFF0A6802F8010B0A60D9
:10268000704710B5436913B1AFF3008001E0FFF765
:1026900043FE012010BD127800F124010A700022CF
:1026A0004A700122EDE711684FF0FF32E9E70000C0
:1026B000074B70B50D467B44FFF7CBFF0446284619
:1026C00000F0E3FB10B14FF0FF3070BD204670BD4D
:1026D00001DFFFFF2DE9FF5F15468A460446DFF85C
:1026E000AC80F8440027D8E900103E46CDE9001040
:1026F00010E03AF816106A4602A800F0CAFB411C26
:1027000007D02178890603D5E269391891420DD89E
:102710000744761C2078800602D5E069B84205DDC2
:10272000AE42E6DB3AF816000028E2D1A069C01BF1
:10273000A0612046FFF701FFD8E90010CDE90010A5
:10274000002017E03AF818106A4602A800F0A1FB32
:10275000B0F1FF3F81460BD000250DF1080B05E0DD
:10276000D4E901211BF8050090476D1C4D45F7D3B6
:1027700008F10100B0428046E4DB206A3844206260
:102780002046FFF7F0FEBDE8FF9F00007A1700002B
:102790002DE9F0418046D21D22F007020025D2E942
:1027A0000002F52914A612D0002A06DA0023D0EB85
:1027B000030063EB020211A608E0D8F800108B07B3
:1027C00001D50FA602E0490701D50EA60125114645
:1027D000002408F1240704E000F098F830323A555C
:1027E000641C50EA0102F7D12B463246214640468E
:1027F000BDE8F04100F0CFB8000000002D0000005F
:102800002B0000002000000030B4002100F124045F
:1028100008E002F00705D208303542EA4372DB08CF
:102820006554491C52EA0305F3D10468002310A241
:10283000250708D504F020040C4304D0C469012303
:102840000CA2641EC46130BC00F0A5B810B50446EB
:1028500021461068FFF7A1FE02462046BDE8104061
:102860000023D1E7D21D22F00701D1E90023CBE7F5
:102870000000000030000000F0B40D46018809059A
:1028800002D5214C7C4402E01F4C7C440E340021D4
:1028900000F1240608E002F00F071209E75D42EAA2
:1028A00003721B097754491C52EA0307F3D10278DB
:1028B0000023120704D5702D06D009B1022311346C
:1028C0002246F0BC00F067B801231034F8E770B579
:1028D00004460D4621461068FFF75FFE0246294672
:1028E0002046BDE870400023C6E7D21D22F0070352
:1028F000D3E90023C0E70368126843F020030360B4
:102900000823C3610023B7E7E015000030B5B0F13C
:102910000A024FEA900E71F100034EEA817EB0EB9D
:102920000E0061EB91014FEA101E4EEA017E10EBA2
:102930000E0041EB11114FEA102E4EEA016E10EB22
:102940000E0041EB11214FEA104E4EEA014E10EB02
:102950000E0041EB1141401841F100014FEAD00057
:1029600040EA41704FEAD10110EB80054FEA810443
:1029700044EA907444EB01046D1944EB0404521BC7
:10298000A3414FF0000348BF0A3200D530BD401CC0
:1029900041F1000130BD2DE9F0470D4699469246C0
:1029A000044600F124080168880604D5E06921F096
:1029B0001001216000E00120A84201DD471B00E07A
:1029C0000027A1697A1902EB0900081AA061207892
:1029D000C00602D42046FFF7B0FD002608E0D4E987
:1029E00001211AF806009047206A401C761C2062DC
:1029F0004E45F4DB2078C0060AD52046FFF79DFD42
:102A000006E0D4E9012130209047206A401C206272
:102A1000381EA7F10107F4DC07E0D4E9012118F81A
:102A200005009047206A401C2062281EA5F1010580
:102A3000F3DC2046FFF797FD2078000602D5022040
:102A4000BDE8F0870120FBE770472DE9FF4F0C46FA
:102A50001E464FF0FF378BB0D2E90001DDF86080F1
:102A60000A908A46C1F30A5505B93D460021084639
:102A70004FF00000BAF1000F00F4400005DA00EB5F
:102A800080004FF4400101EA50004FEA9059B9F13B
:102A9000010F00DDB9460A9850EA4A000ED044F60C
:102AA0001050A5F2FF3545432F14B8F1000F1ED08A
:102AB0007542291E1EDDC9F100021CE0B8F1010FAC
:102AC0004FF0000001D0302103E0F24305E0215433
:102AD000401CB042FBDB30460022002121540B9900
:102AE000C1F80880C1E900200FB0BDE8F08FBD1B20
:102AF0006D1CDEE74A4600DA694206A800F05AFA81
:102B000006AB93E8070003AB83E8070050460A9939
:102B100000F006FB8DE80700A0F500501F3800907C
:102B20000398002D09DD42F21F014A46084403A91B
:102B30000390684600F065FD08E0A0F500504A46A5
:102B40001F3803A90390684600F06FFD8DE8070069
:102B50000004000C03D04FF0FF30410800E01046A5
:102B6000B8F1000F03D00022009215461EE0751E3A
:102B700005D4FFF7CBFE303262556D1EF9D5B34652
:102B80000122084302D000227F1C04E02078302874
:102B900001D100227F1E002A099786D01DE0112D49
:102BA00007DAFFF7B3FE303262556D1C50EA0102BE
:102BB000F5D1084302D00098C8B10EE00021681E8C
:102BC00005E0235C625C63542254401E491C814230
:102BD000F7DBAB46A81B401E0990002004F80B0051
:102BE0000B98099AC0F80880C0E9002B7CE71126F1
:102BF0004FF0000859E72DE9F04F88460446D21DF2
:102C000022F0070191B0D1E90001CDE90A0100F0FD
:102C100042FE02460B98C00F01D02D2007E020682D
:102C2000810701D52B2002E0202101EAC000032A00
:102C3000099001D0072A05DB03464146204600F0F3
:102C400079F909E12078800601D5E06900E00620E5
:102C5000B8F1650F814606D0B8F1660F18D0B8F10B
:102C6000670F70D131E00020B9F1110F009001DB46
:102C7000112301E009F101030AAA01A90CA8FFF739
:102C8000E4FEDDE90C70002609F10105834647E00A
:102C900001204B4600904FF000470AAA01A90CA85A
:102CA000FFF7D3FEDDE90DB00C995D46002610B9A3
:102CB00009F101000D18B9EB050003D4C0F1FF368E
:102CC00009F10105A5EB09002BE0B9F1010F01DACB
:102CD0004FF001090020B9F1110F0090484601DDC5
:102CE000112300E003460AAA01A90CA8FFF7ADFED4
:102CF000DDE90C704D4600268346207800070AD493
:102D0000AB4500DA5D4601A8012D04DD411911F83B
:102D1000011C302907D04F4502DA17F1040F04DAFD
:102D2000012082460FE06D1EEEE7002F02DCED1B56
:102D30003E4403E0781CA84200DD7D1CB81B00F176
:102D4000010A4FF000472078000703D4AA4501DBB1
:102D50004FF0FF3A0021B7F1004F0DF143088DF815
:102D6000431022D002202B23002F01DA7F422D2393
:102D70004FF00A0C011EA0F1010000DC47B197FBE7
:102D8000FCF10CFB11720F46303208F8012DF1E70F
:102D9000A8F1010003702188090501D5452100E053
:102DA0006521A0F1010800F8011C09980FA9A1EB09
:102DB0000807FF1D00B10120411901EBEA70A1696C
:102DC0003844081A401EA0612078C00602D420466C
:102DD000FFF7B3FB099828B1D4E901219047206A95
:102DE000401C20622078C00622D52046FFF7A5FBB4
:102DF0001EE0002E04DBB34502DD01A8805D00E08B
:102E00003020D4E901219047206A401C2062761CC2
:102E1000AAF101005FEA000A0AD100F087F8C06851
:102E20000168405CD4E901219047206A401C20627F
:102E3000281EA5F10105DCDC07E0D4E9012118F822
:102E4000010B9047206A401C2062381EA7F1010741
:102E5000F3DC2046FFF787FB022011B045E610B5F2
:102E6000436913B1AFF3008001E0FFF733FC0120A9
:102E700010BD128800F1240182840022C284012244
:102E8000EDE711684FF0FF32E9E7007B00F08000CA
:102E9000704770B516460C46054600F03FF80368CB
:102EA00093F80101012806D0FF2C0FD8185D68B1F6
:102EB00001202C7070BDD3F807013246214603442F
:102EC0002846BDE8704003F2071318474FF0FF3063
:102ED00070BD754600F0E0F8AE4605006946534601
:102EE00020F00700854618B020B5FDF711FCBDE8BD
:102EF00020404FF000064FF000074FF000084FF061
:102F0000000B21F00701AC46ACE8C009ACE8C009F1
:102F1000ACE8C009ACE8C0098D46704710B500F0B8
:102F200005F8001D10BD00BFD10900000048704722
:102F3000CC0100202DE9F0411F460446032601681C
:102F4000072A01F4006004DB08B116A505E016A508
:102F500003E008B115A500E015A521F010002060E0
:102F6000A069C01EA0610FB1401EA0612046FFF7FE
:102F7000E4FA4FB1D4E9012138469047206A401C59
:102F80002062C01C206206E0206AFAE7D4E9012131
:102F900015F8010B9047761EF8D22046FFF7E3FAAA
:102FA000BDE8F0814E414E006E616E00494E460014
:102FB000696E66002DE9F047814616468AB03248B0
:102FC00078440DC88DE80D002F487844801C03AC70
:102FD0000DC884E80D0041F69B303722014491FB77
:102FE000F2F0A0F1800502FB10141B3C02D56442F4
:102FF000012000E00020DFF890A080460027FA447E
:10300000AAF1BA0A0DE0E00709D03246684607EB9C
:1030100047010AEB810100F008FB8DE8070064100E
:103020007F1C002CEFD1184F7F44A83F18E0E80721
:1030300014D007EB04100DF1180A90E80E008AE88E
:103040000E00C068F04201D198190890324606A9D6
:1030500003A800F0EAFA03AB83E807006D10641CD4
:10306000002DE4D132466946B8F1000F03A802D022
:1030700000F0C7FA01E000F0D8FAC9E90001C9F888
:1030800008200AB0BDE8F087480F00000446AFF3FF
:1030900000802046FDF7C7F800487047AC010020CB
:1030A0004FF0013C50F8042B51F8043B9A4221D1D7
:1030B000A2EB0C03934313EACC1317D150F8042B63
:1030C00051F8043B9A4215D1A2EB0C03934313EA47
:1030D000CC130BD150F8042B51F8043B9A4209D180
:1030E000A2EB0C03934313EACC13DBD04FF00000A8
:1030F000704700BFD01A01BAB1FA81F101F018018E
:1031000022FA01F0CB40C1F12001DBB2C0B2C01AFB
:103110002CFA01F3D11A914311EAC311E6D1704799
:103120005FEA400C08BF91F0000F4FEA8C234FEA92
:10313000C12243EA51514FEA1C5018BF00F5F0403C
:103140004FEA300018BF41F000415FEA6C5C00F0CC
:103150002980BCF1FF3F08BF40F080407047130C4E
:1031600006BF12044FF0100C4FF0000C130E04BFFA
:1031700012020CF1080C130F04BF12010CF1040C25
:10318000930F04BF92000CF1020CD30F04BF520046
:103190000CF1010C11464FF00002A0F11F00A0EB52
:1031A0000C00704711F0004F08BF704731F000412C
:1031B0003FF4D5AF0B0C06BF09044FF0100C4FF0D5
:1031C000000C0B0E04BF09020CF1080C0B0F04BF1E
:1031D00009010CF1040C8B0F04BF89000CF1020CE7
:1031E000CB0F04BF49000CF1010CCCF12003A0EB84
:1031F0000C0022FA03F302FA0CF241EA030100F197
:103200000100704720F07F4C80EA030023F07F47E5
:10321000ACEB070303F57C5300F0004003F1FF0320
:103220002DE980494FEA154B09B44FEA144325EACA
:103230000B4E24EA03480FF2042606EB1327490835
:103240003E785FEA320203FB0667C7F5000707FB1B
:1032500006F64FEA54374FEAD64606F1020607FB58
:10326000066CCCF1005C4FEA1C472CEA074C07FBCC
:1032700006F40CFB06F504EB15464FEA961634BF30
:1032800000204FF000404FEAD13706FB07FC4FEA21
:103290001C4C0CFB0BF7D21B03FB0CF761EB07017B
:1032A0000CFB0EF7B0EB074072EB17420CFB08F774
:1032B00034BFA2EB0742B2EB074261EB17414FEA82
:1032C0000C444FEA910706FB07FC4FEA1C4C0CFB31
:1032D0000BF7B0EBC74072EB573203FB0CF734BF70
:1032E000A2EBC742B2EBC74261EB57310CFB0EF7C2
:1032F000B0EBC70072EB57720CFB08F734BFA2EBC0
:10330000C702B2EBC70261EB5771039F4FEA8161BD
:1033100041EA921104EBCC044FEAD1374FEA8262C2
:1033200006FB07FC42EA90124FEA80604FEA1C4C11
:103330000CFB0BF7D21B03FB0CF761EB07010CFB3B
:103340000EF7B0EB074072EB17420CFB08F734BFE7
:10335000A2EB0742B2EB074261EB17414FEA8C55F3
:103360004FEA910704EB9C2406FB07FC4FEA1C4C38
:103370000CFB0BF7B0EBC74072EB573203FB0CF7BB
:1033800034BFA2EBC742B2EBC74261EB57310CFB33
:103390000EF7B0EBC70072EB57720CFB08F734BFA7
:1033A000A2EBC702B2EBC70261EB577115EB4C25DC
:1033B0004FEA816141EA92114FEA82624FEAD137C6
:1033C00042EA901206FB07FC44F100044FEA8060D9
:1033D0004FEA1C4C0CFB0BF7D21B03FB0CF761EB09
:1033E00007010CFB0EF7B0EB074072EB17420CFB2A
:1033F00008F734BFA2EB0742B2EB074261EB17417B
:1034000015EB1C154FEA813141EA92414FEA8232B5
:1034100042EA90424FEA80304FEA0C7644F10004D1
:1034200048EA03434EEA0B484FF0000EB2EB080C9B
:1034300071EB030724BF624639464EEB0E0E4FF088
:10344000000B0018524149414BEB0B0BB2EB080C3F
:1034500071EB03077BF1000B24BF624639464EEB4C
:103460000E0E4FF0000B0018524149414BEB0B0B75
:10347000B2EB080C71EB03077BF1000B24BF624633
:1034800039464EEB0E0E51EA020718BF46F0010610
:1034900016EB0E7655F1000254F1000103D5BDE89C
:1034A0008901BDE80088BDE88901B619BDE800487A
:1034B000524141EB0101A3F10103704780807F7EFF
:1034C0007D7C7B7A7978777676757473727171709A
:1034D0006F6E6E6D6C6C6B6A6A696868676666654C
:1034E0006464636362616160605F5F5E5E5D5D5CDA
:1034F0005C5B5B5A5A59595858575756565555554B
:103500005454535352525251515050504F4F4F4EAA
:103510004E4D4D4D4C4C4C4B4B4B4A4A4A494949F8
:10352000484848474747474646464545454444443A
:10353000444343434342424242414141002B26D44B
:10354000770021D01CB54FEA370703B44FF01000C5
:103550004FF010014FF000000FBC0BF1010BBDE864
:103560001040BBF1010F08BF5FEA170722BF12F13D
:10357000010211F101014FF0004143F1000300F09D
:10358000004043EA00007047F9D35708DAE746EAFB
:10359000064613F1400F4FEA16461FDD13F1200FC8
:1035A000DFBF16430A46002120335B42C8D0C3F177
:1035B000200746EA064602FA07F74FEA164646EAA9
:1035C0000706C3F1200722FA03F201FA07F721FAEE
:1035D00003F14FF0000342EA0702B1E746EA0206B0
:1035E00046EA06464FEA164646EA0106BCBF46EAE8
:1035F0000646360C4FF000034FF000024FF000017A
:103600009EE72DE9C048934630B491E8380007C8DA
:1036100031EA400C48BF34EA430C03D5FFF7F2FD12
:10362000FFF78CFFF0BCBDE800882DE9C048934649
:1036300030B491E8380007C810F0804F08BF13F08D
:10364000804F03D100F005F8FFF778FFF0BCBDE82C
:10365000008820F07F4780EA030023F07F4C07EBCF
:103660000C03A3F57C5300F00040A3F1FE0392F09D
:10367000000F00F0B38095F0000F00F077802DE987
:1036800001494FEA11404FEA144621EA004800FB85
:1036900006FC24EA064708FB06F607FB08F800FBD1
:1036A00007F718EB06484CEB164C4FEA124B18EB99
:1036B00007484FEA15464CEB174022EA0B4E0BFB2E
:1036C00006FC25EA06470EFB06F607FB0EFE0BFB83
:1036D00007F71EEB064E4CEB164C4FF000061EEBA8
:1036E000074E4CEB174B18EB0B0840F1000018EBA2
:1036F0000E0B58EB000840F100008F1A4FF000014C
:103700003CBFC943661B14BFB5EB040C00213CBF92
:10371000C943F61B4FEA17444EEA8E0E27EA0445CA
:103720004FEA1C4704FB07622CEA074C05FB07F72E
:103730000CFB05F604FB0CFC16EB074642EB1742AC
:1037400016EB0C4642EB1C421BEB060658EB020242
:10375000414146EA9E0601D5BDE80189B6195241AC
:1037600041EB0101A3F10103BDE801894FEA1445D2
:103770004FEA114724EA054621EA074C05FB07F406
:1037800006FB07F70CFB06F105FB0CFC11EB0741F0
:1037900044EB17444FEA124711EB0C4144EB1C4435
:1037A00022EA074C05FB07F206FB07F70CFB06F6BF
:1037B00005FB0CFC16EB074642EB174216EB0C46DA
:1037C00042EB1C456A1854F1000148BF7047B61916
:1037D000524141EB0101A3F10103704795F0000F45
:1037E00037D04FEA11424FEA144721EA024624EA51
:1037F000074C02FB07F106FB07F70CFB06F402FB84
:103800000CFC14EB074441EB17414FEA154714EB4E
:103810000C4441EB1C4125EA074C02FB07F506FB73
:1038200007F70CFB06F602FB0CFC16EB074645EB14
:10383000174516EB0C4645EB1C42121951F10001DD
:1038400048BF7047B619524141EB0101A3F1010392
:1038500070474FEA14454FEA114724EA054621EA2A
:10386000074C05FB07F106FB07F70CFB06F24FF0D0
:10387000000605FB0CFC12EB074241EB174112EB73
:103880000C4251EB1C4148BF7047921841EB0101BB
:10389000A3F101037047490050EAC12018BF04207A
:1038A0004A0D18BF40F0010040F2FF72B2EB515FC9
:1038B00008BF40F00200012808BF052070473038DB
:1038C0000A2801D2012070470020704710B5002956
:1038D0000AD00878002807D005487844FFF7E0FBB5
:1038E000002801D0002010BD0248784410BD00001F
:1038F0006A0600006206000010B500290AD00878A8
:10390000002807D005487844FFF7CAFB002801D0FB
:10391000002010BD0248784410BD00005A06000087
:103920005206000021F00042A2F16052B2F5801F61
:1039300001F0004328BFD2F17F6C0BD95FEA001C75
:1039400043EAC20242EB507018BF704728BF20F014
:1039500001007047B2F5801FBCBF184670474FEAA0
:10396000410C1CF5001F02D2084600F063BA70B586
:1039700000F062F900000089FFF7F6BF4FF0004049
:10398000A0F58000704700002DE9C04130B4DFF899
:10399000A0C23CEA111418BF3CEA131400F0EC80FA
:1039A00081EA03051CEA111444EAD57418BF1CEA25
:1039B000131500F0C780A4EB05044FF0004545EA5D
:1039C000C12145EAC32341EA505143EA525304F16D
:1039D0007F74994204F500344FEAC0204FEAC222B6
:1039E00008BF904200F09C804FEA13650FF240162A
:1039F000765D4FEA134506FB05F7C7F1807706FBB6
:103A000007F74FEAD737A7FB03687642C8F5803837
:103A1000A7FB06CE38BFA8F1010807FB08E64FF068
:103A2000000EA6FB028CE6FB03CEDCF1000CCEF10F
:103A3000004E38BFAEF1010EA6FB0C584FF0000748
:103A40004FF00005E6FB0E87A1FB08C6A0FB07CEE2
:103A500016EB0E0645F10005E1FB076515F1E04E9A
:103A60007EBFA4F580345FEA46066D4116F18007FB
:103A700045F100054FEA17274FEA066647EA056752
:103A8000A6F1DE46B6F1805F4FEA15251FD938460C
:103A900024F0010C05EBC471BCF1FE6F01EB0C11BD
:103AA00002D8F0BCBDE8008124425CBF01F5801E55
:103AB0009EEAC47F02D4F0BCBDE80081244238D421
:103AC000F0BCA1F1C041BDE8004100F003B94FEAEC
:103AD000D22242EA43524FEAD323A7FB02864FEA9F
:103AE000D02040EA415007FB03661EEA0E0F4FEA62
:103AF000D12105FB026658BFA6EB0056B6EB005677
:103B00004FEA520E4EEAC37E18EB0E0E56EB530EE2
:103B1000BDD518EB02085E417F1C55F10005B6E7E4
:103B20004FF480154FF000074FF000064FF00008EB
:103B3000ADE7F0BC4FF0000001F1C04101F00041E1
:103B4000BDE8008111EA0C1F0CEA131500D00CE04F
:103B500013EA0C1F00F025804FF00000F0BC81EA52
:103B6000030101F00041BDE80081F0BC81EA0301DE
:103B7000BDE8004100F0AEB8F0BCBDE8004170B552
:103B800000F05AF8097EFC3E00F007B881EA030114
:103B90004FF0000001F00041704781EA030100F09E
:103BA00099B8F0BC4FF000002249BDE800417047D1
:103BB000FFFDFBF9F7F5F4F2F0EEEDEBE9E8E6E4F2
:103BC000E3E1E0DEDDDBDAD8D7D5D4D3D1D0CFCD79
:103BD000CCCBCAC8C7C6C5C4C2C1C0BFBEBDBCBBB2
:103BE000BAB9B8B7B6B5B4B3B2B1B0AFAEADACABAD
:103BF000AAA9A8A8A7A6A5A4A3A3A2A1A09F9F9E87
:103C00009D9C9C9B9A999998979796959594939338
:103C1000929191908F8F8E8E8D8C8C8B8B8A8989CF
:103C20008888878786858584848383828281818052
:103C30000000FF070000F87F0EF1020E2EF0030EC9
:103C40005EF8046B364205D4012A43EB030515F5F3
:103C5000001F12D8012841EB010C1CF5001F0CD8E5
:103C60000ED14FEAD17C15F5001F0CEB4C0C0CF17A
:103C7000020C08BF4CEBD37C04E04FF0080C01E0D1
:103C80004FEAD37C0CEB4C0526FA05F606F0070646
:103C9000B6F1040C06D20EEB860CBDE870404CF079
:103CA000010C6047DFE80CF0090B02024FF0004105
:103CB0004FF00000A1F5002170BD19461046012803
:103CC00051EB010418BFD4F5001484BF002001F0AB
:103CD000004170BD0808A0F500114FEA310170479E
:103CE00043004FEAD30C4FEA3C0C43401FBF400750
:103CF0000CF1605113F0FE4F70471CF0006F03D1C0
:103D000000200CF0004170470CF0004343EA507073
:103D100010B540EACC0000F047F800BF0000009268
:103D20004FEA0001FFF7D6BF4FF000414FF000000F
:103D3000A1F5002170470000C10DD1F19E0206DB04
:103D40004FEA002343F0004323FA02F07047004299
:103D500007D54FEA4001B1F1FE4F02D24FF000000B
:103D6000704710B500F020F8499224800020704779
:103D70006FEA20007047000010F0004148BF404249
:103D8000B0FA80F310FA03F2C3F19D030BD051EAAD
:103D9000C35101EB1220530638BF704700F10100F8
:103DA00008BF20F0010070470EF1020E2EF0030E46
:103DB0005EF8044B244204D44FEA4102B2F17F4F33
:103DC00011D84FEA4003B3F17F4F0CD80ED14FEA20
:103DD000D07CB2F17F4F0CEB4C0C0CF1020C08BF05
:103DE0004CEBD17C04E04FF0080C01E04FEAD17CB1
:103DF0000CEB4C0324FA03F404F00704B4F1040CB4
:103E000006D20EEB840CBDE810404CF0010C60476C
:103E1000DFE80CF0070802024FF00040A0F5800038
:103E200010BD0846420018BFD2F1807288BF00F072
:103E3000004010BDFF2141EAD050C0057047FEF799
:103E4000DABE34431010013443101001040000089E
:103E5000000000000000000200010000100000004F
:103E600000000000000000003031323334353637B6
:103E700038394142434445464030580030313233AE
:103E800034353637383961626364656640307800AE
:103E900002400000000000A00000000005400000FB
:103EA000000000C8000000000C4000000000409C22
:103EB00000000000194000000020BCBE000000000F
:103EC00034400000BFC91B8E00000004B540000054
:103ED000504BCFD06607E2CF010000006C410000DC
:103EE0003E8251AADFEEA73401000000D942000053
:103EF000DCB5A0E23A301F97FFFFFFFFB44500009A
:103F0000FD25A0C8E9A3C14FFFFFFFFFFF3F000051
:103F10000000008000000000FF3F00000000008063
:103F20000000000070400008000000206400000055
:103F300028010008D440000864000020AC070000FD
:103F4000440100081C00000043000000F8FFFFFFD0
:103F50000C0000000E0000000F0000002E0000000A
:103F60001001000043000000F8FFFFFF0040404048
:103F7000404040404040414141414140404040403C
:103F800040404040404040404040404040050202E8
:103F900002020202020202020202020202202020A7
:103FA0002020202020202002020202020202909003
:103FB0009090909010101010101010101010101001
:103FC0001010101010101010020202020202888855
:103FD0008888888808080808080808080808080861
:103FE0000808080808080808020202024000000049
:103FF00000000000000000000000000000000000C1
:1040000000000000000000000000000000000000B0
:1040100000000000000000000000000000000000A0
:104020000000000000000000000000000000000090
:104030000000000000000000000000000000000080
:104040000000000000000000000000000000000070
:104050000000000000000000000000000000000060
:104060000000000000000000000000000000000050
:10407000743030306C303030303068303000000018
:1040800000A24A0400000000000000000102030436
:104090000607080900000000000000000000000002
:1040A00000000102030401020304060708090204D8
:1040B00006080000000000000000000000000000F2
:1040C00000000000000000000000000000000000F0
:0440D00000000000EC
:04000005080000ED02
:00000001FF
